:020000040800F2
:1000000000500020252F0008692E00086B2E0008E4
:100010006D2E00086F2E0008712E000800000000F1
:10002000000000000000000000000000732E000827
:10003000752E000800000000772E0008792E0008B9
:100040006D2F00086D2F00086D2F00086D2F000820
:100050006D2F00086D2F00086D2F00086D2F000810
:100060006D2F00086D2F00086D2F00086D2F000800
:100070006D2F00086D2F00086D2F00086D2F0008F0
:100080006D2F00086D2F00086D2F00086D2F0008E0
:10009000812E0008912E00086D2F00086D2F00089A
:1000A0006D2F0008A12E00086D2F00086D2F00088D
:1000B000B12E00086D2F00086D2F00086D2F00086D
:1000C0006D2F00086D2F00086D2F00086D2F0008A0
:1000D0006D2F00086D2F00086D2F00086D2F000890
:1000E0006D2F00086D2F00086D2F00080000000024
:1000F0000000000000000000000000000000000000
:0C01000000000000000000005FF808F1A3
:10010C0010B5054C237833B9044B13B10448AFF345
:10011C0000800123237010BD30000020000000007F
:10012C00B82F000808B5034B1BB103490348AFF3C4
:10013C00008008BD0000000034000020B82F00082B
:10014C0010B504460E4B18784FF47A73B3FBF0F3EA
:10015C000C4A1068B0FBF3F000F0EAFB68B90F2C06
:10016C0001D901200AE0002221464FF0FF3000F0B7
:10017C008BFB034B5C60002000E0012010BD00BF36
:10018C00000000202C00002008B5074A136843F03B
:10019C0010031360032000F065FB0020FFF7D0FF75
:1001AC0002F042FD002008BD00200240034A116805
:1001BC00034B1B780B441360704700BF7C0000207E
:1001CC0000000020014B1868704700BF7C00002025
:1001DC0038B50446FFF7F6FF0546B4F1FF3F02D0F1
:1001EC00044B1B781C44FFF7EDFF401BA042FAD3D5
:1001FC0038BD00BF00000020002800F0A18038B5F9
:10020C00044690F82030D3B12268136843F0010300
:10021C001360FFF7D7FF054623685A6812F0010FE9
:10022C0010D1FFF7CFFF401B0A28F5D9636A43F4BE
:10023C0000336362052384F82030012038BD02F0BE
:10024C0015FDE1E71A6822F002021A60FFF7BAFF07
:10025C00054623685A6812F0020F0DD0FFF7B2FF63
:10026C00401B0A28F5D9636A43F400336362052303
:10027C0084F820300120E1E7227E012A3DD01A6863
:10028C0022F080021A60637E012B3BD02268136837
:10029C0023F040031360A37E012B39D0226813682E
:1002AC0023F020031360E37E012B37D02268136800
:1002BC0043F010031360237F012B35D022681368A1
:1002CC0023F008031360637F012B33D0226813687B
:1002DC0023F004031360A368E268134322691343F9
:1002EC00626913436268013A21681343CB610020B1
:1002FC006062012384F82030A0E71A6842F0800283
:10030C001A60C0E72268136843F040031360C2E729
:10031C002268136843F020031360C4E72268136853
:10032C0023F010031360C6E72268136843F0080338
:10033C001360C8E72268136843F004031360CAE72C
:10034C0001207047026890F82030013BDBB2012B92
:10035C0005D9436A43F4802343620120704770B48B
:10036C00D2F8003243F00103C2F800324B6903F0BB
:10037C001F03012000FA03F3D2F81C02DC4320EA2D
:10038C000300C2F81C02C869A8B9D2F80C022040BC
:10039C00C2F80C02CE688D88486945EA064548309B
:1003AC0042F830508E680D88486945EA0645483059
:1003BC0002EBC0004560C869012819D0886970BB80
:1003CC00D2F804022040C2F80402086968BBD2F8D3
:1003DC0014020440C2F81442096A01292BD0D2F845
:1003EC00003223F00103C2F80032002070BC7047C9
:1003FC00D2F80C021843C2F80C020E688D884869BA
:10040C0045EA0645483042F830508E688D89486977
:10041C0045EA0645483002EBC0004560CEE7D2F80D
:10042C0004021843C2F80402CFE7D2F814021843AE
:10043C00C2F81402D0E7D2F81C120B43C2F81C32DB
:10044C00CDE770B5044690F82050EDB2012D06D0E2
:10045C00436A43F4002343620125284670BD0223FE
:10046C0080F820300268136823F001031360FFF753
:10047C00A9FE064623685B6813F0010F0CD0FFF74A
:10048C00A1FE831B0A2BF5D9636A43F40033636224
:10049C00052384F82030E0E700256562DDE730B401
:1004AC0090F82040013CE4B2012C00F2918051B94B
:1004BC000468E46814F0030F10D1436A43F400138A
:1004CC004362012089E00468246914F0030F05D10C
:1004DC00436A43F40013436201207EE0056801F196
:1004EC001B0424012C5904F004049460002C61D1E9
:1004FC00056801F11B0424012C59640D1460056876
:10050C0001F11B0424012D5905F00205D560056885
:10051C0025446D6805F00F051561056825446D6867
:10052C00C5F30725956105682C446468240C546157
:10053C00026802EB0112D2F8B8211A70026802EBC1
:10054C000112D2F8B821C2F307225A70026802EBEA
:10055C000112D2F8B821C2F307429A70026802EB7A
:10056C000112D2F8B821120EDA70026802EB0112F5
:10057C00D2F8BC211A71026802EB0112D2F8BC212C
:10058C00C2F307225A71026802EB0112D2F8BC21A5
:10059C00C2F307429A71026802EB0112D2F8BC2135
:1005AC00120EDA7171B90268D36843F02003D3607C
:1005BC00002012E0056801F11B0424012C59E40809
:1005CC0054609CE70268136943F020031361EFE762
:1005DC00436A43F480234362012030BC704790F897
:1005EC002030013BDBB2012B05D9436A43F4802355
:1005FC00436201207047026853691943516100201E
:10060C007047704770477047704770477047704726
:10061C0070477047704770472DE9F84F05460368DF
:10062C005C69D3F804809F68D3F80CB0D3F810A0A1
:10063C00D3F8189014F001063BD017F0010616D031
:10064C0001229A6017F0020F08D117F0040F0CD199
:10065C0017F0080606D04FF4805608E0FFF7D1FFDC
:10066C00002604E0FFF7D0FF01E04FF4006617F41A
:10067C00807F0DD02B684FF480729A6017F4007F46
:10068C0040F0868017F4806F00F0868046F40056A8
:10069C0017F4803F0DD02B684FF480329A6017F41A
:1006AC00003F40F0838017F4802F00F0838046F4E5
:1006BC00004614F0080F07D01BF0100F04D046F4BE
:1006CC0000762B681022DA6014F0040F02D01BF0B5
:1006DC00080F79D114F0020F04D02B68DB6813F0EB
:1006EC00030F78D114F0400F07D01AF0100F04D07C
:1006FC0046F480662B6810221A6114F0200F02D089
:10070C001AF0080F6BD114F0100F04D02B681B6972
:10071C0013F0030F6AD114F4003F02D018F0100F3D
:10072C0068D114F4803F02D018F0080F69D114F48A
:10073C00004F7AD018F0040F74D014F4807F04D0DA
:10074C0019F0010F01D046F0010614F4007F04D01B
:10075C0019F0020F01D046F0020614F4806F04D099
:10076C0019F0040F01D046F0040614F4006F59D0B0
:10077C0019F0700956D0B9F1400F65D058D8B9F1BD
:10078C00200F5ED0B9F1300F42D146F0200644E084
:10079C002846FFF737FF7BE717F4006F02D046F4CB
:1007AC00804675E72846FFF730FF71E72846FFF7CC
:1007BC002AFF7EE717F4002F02D046F4803678E744
:1007CC002846FFF723FF74E72B680822DA602846D7
:1007DC00FFF71DFF7EE7284601F0E2FF82E72B685A
:1007EC0008221A612846FFF713FF8CE7284601F010
:1007FC00E6FF90E72B6810225A602846FFF709FFA6
:10080C008FE72B6808225A602846FFF703FF8EE714
:10081C00B9F1100F01D146F008062A68936923F04C
:10082C00700393612B6804225A609EB9BDE8F88F5F
:10083C00B9F1500F0BD0B9F1600FEED146F48076C0
:10084C00EBE746F01006E8E746F04006E5E746F031
:10085C008006E2E76B6A1E436E622846FFF7DBFEFA
:10086C00E4E70000074AD36823F4E0631B041B0C85
:10087C00000200F4E060034343F0BF6343F4003331
:10088C00D360704700ED00E030B4174BDB68C3F366
:10089C000223C3F10704042C28BF04241D1D062DBC
:1008AC0018D9033B4FF0FF3505FA04F421EA040193
:1008BC00994005FA03F322EA0303194300280BDBE2
:1008CC000901C9B200F1604000F5614080F80013E5
:1008DC0030BC70470023E5E700F00F000901C9B2F6
:1008EC00024B1954F4E700BF00ED00E014ED00E0FA
:1008FC00002807DB00F01F02400901239340024A45
:10090C0042F82030704700BF00E100E0BFF34F8F8A
:10091C000549CA6802F4E062044B1343CB60BFF391
:10092C004F8F00BFFDE700BF00ED00E00400FA05AB
:10093C000138B0F1807F0AD2064B5860064AF0218C
:10094C0082F823100020986007221A60704701205B
:10095C00704700BF10E000E000ED00E0044B002207
:10096C00DA61044A136943F0010313610180704793
:10097C008000002000200240194BDB6813F01003AC
:10098C0005D0184AD36943F00203D3611023144AEB
:10099C00D26812F0040F06D01249CA6942F0010263
:1009AC00CA6143F004030E4AD26912F0010F09D058
:1009BC000C49CA6942F00402CA610949CA6922F0A9
:1009CC000102CA6140F20112934202D0044AD36080
:1009DC007047034AD36923F00103D361704700BF0A
:1009EC0000200240800000200A4B1B6913F0800F8E
:1009FC000BD0084B084A5A6002F188325A601B69C6
:100A0C0013F0800F03D100207047002070470120A5
:100A1C00704700BF0020024023016745034A136959
:100A2C0043F0800313610020704700BF0020024098
:100A3C0038B50446FFF7C6FB0546164BDB6813F0CA
:100A4C00010F0AD0B4F1FF3FF7D024B1FFF7BAFB86
:100A5C00401BA042F1D903201BE00E4BDB6813F0C6
:100A6C00200F02D00B4B2022DA600A4BDB6813F00C
:100A7C00100F0BD1074BDB6913F0010F06D1054B9F
:100A8C00DB6813F0040F01D1002002E0FFF774FFC4
:100A9C00012038BD002002402DE9F8431E46234BAF
:100AAC001B7E012B40D004460F4690461F4B012263
:100ABC001A764CF25030FFF7BBFF034670BB012C8B
:100ACC0029D0022C24D04FF004091C464C4525D2C9
:100ADC002101C1F12002A1F1200328FA01F106FA4B
:100AEC0002F2114326FA03F3194389B207EB4400CF
:100AFC00FFF734FF4CF25030FFF79AFF0C4B1D6997
:100B0C0025F001051D61034640B90134E4B2DDE76F
:100B1C004FF00209D9E74FF00109D6E7034A00214B
:100B2C0011761846BDE8F8830223FAE7800000200E
:100B3C0000200240F0B482B000252C46A3E07F4F89
:100B4C00BB4210D007D97E4FBB420CD007F5803783
:100B5C00BB4208D013E0A7F58017BB4203D007F5C2
:100B6C007027BB4207D18B68002B58D0012B51D07A
:100B7C004261082503E0A7F58017BB42F3D0FF2E96
:100B8C004FD88446FF2E4FD8A200DCF800300F2738
:100B9C00974023EA070305FA02F21343CCF800301E
:100BAC004B6813F0805F6DD0664B9A6942F001027E
:100BBC009A619B6903F001030193019BA208971CA6
:100BCC00614B53F8273004F00307BF004FF00F0CB4
:100BDC000CFA07FC23EA0C0C5C4B98422AD003F568
:100BEC008063984200F08A8003F58063984200F09D
:100BFC00878003F5806398421AD004231BE0CD68EC
:100C0C00BDE7CD680435BAE7CD680835B7E7CD68E0
:100C1C000C35B4E702610825B1E70025AFE70425E0
:100C2C00ADE700F1040CADE7A4F108029200ACE7CB
:100C3C00032300E00023BB4043EA0C030232424F83
:100C4C0047F822304B6813F4803F5BD0404A13685E
:100C5C00334313604B6813F4003F59D03C4A53683C
:100C6C00334353604B6813F4801F57D0384A936852
:100C7C00334393604B6813F4001F55D0344AD36848
:100C8C001E43D66001340B6833FA04F252D00122B1
:100C9C00A24003EA020632EA0303F3D14B68122B9B
:100CAC003FF64DAF122B3FF66AAF01A757F823F072
:100CBC00730B00080B0C0008150C0008270C00081F
:100CCC008B0B00088B0B00088B0B00088B0B0008A0
:100CDC008B0B00088B0B00088B0B00088B0B000890
:100CEC008B0B00088B0B00088B0B00088B0B000880
:100CFC008B0B00080F0C00081B0C000801239AE753
:100D0C00022398E7124A136823EA06031360A1E74B
:100D1C000F4A536823EA06035360A3E70C4A93680F
:100D2C0023EA06039360A5E7094AD36823EA06067B
:100D3C00D660A7E702B0F0BC704700BF00002210DD
:100D4C00000031100010024000000140000801407A
:100D5C00000401400AB10161704709040161704748
:100D6C00C36801EA030221EA030141EA024101617D
:100D7C00704703685A6912F4806F01D100207047E4
:100D8C006FF480625A6100230363202280F83D20B7
:100D9C0080F83E30026C42F00402026480F83C3071
:100DAC00012070472DE9F04107460D4690461E463E
:100DBC0022E0FFF707FA069BC01AB04200D8DEB952
:100DCC0000233B63202287F83D2087F83E303A6CA5
:100DDC0042F020023A6487F83C3001201AE03B686C
:100DEC009C6925EA0404A4B2B4FA84F46409A0450D
:100DFC000FD1B6F1FF3FDCD1C5F30743012BEED188
:100E0C003B685C6925EA0404A4B2B4FA84F464096E
:100E1C00EDE70020BDE8F0812DE9F04105460E46D6
:100E2C00174698463DE01A6842F400721A602B6827
:100E3C006FF480625A6100232B63202285F83D20D9
:100E4C0085F83E302A6C42F004022A6485F83C3066
:100E5C00012034E0FFF7B6F9A0EB0800B84200D847
:100E6C00FFB900232B63202285F83D2085F83E3006
:100E7C002A6C42F020022A6485F83C3001201EE0E6
:100E8C002B689C6926EA0404A4B2003C18BF012418
:100E9C00A4B12B685A6912F4806FC4D1B7F1FF3F2B
:100EAC00D8D1C6F30743012BEAD12B685C6926EA3B
:100EBC000404A4B2003C18BF0124E9E70020BDE8FB
:100ECC00F0810000F0B583B004460D4616461F466F
:100EDC00C36A082B0DD0012B0BD013F5803F08D023
:100EEC00036B122B0AD10268136843F480731360EE
:100EFC0004E02268136843F4807313600097334650
:100F0C0000224FF001112046FFF74CFF80B92369F6
:100F1C00B3F5804F16D1236805F0FE051D613B46E5
:100F2C00324613492046FFF777FFF8B903B0F0BDFE
:100F3C0023681B6813F4807F02D04FF40073236482
:100F4C000320F3E7EB11226803F0060343F0F003F0
:100F5C0013613B46324607492046FFF75DFF18B93F
:100F6C002368EDB21D61DAE70120DFE70120DDE740
:100F7C00020001000800010070B504460D4616463B
:100F8C0023685B6913F0800F1CD12046FFF7F1FE3C
:100F9C00D0B9B5F1FF3FF3D0FFF714F9801BA8428D
:100FAC0001D8002DECD100232363202284F83D20AE
:100FBC0084F83E30226C42F02002226484F83C30EB
:100FCC00012000E0002070BD0120FCE770B5044654
:100FDC000D46164623685B6913F0040F1CD120469E
:100FEC00FFF7C7FED0B9B5F1FF3FF3D0FFF7EAF832
:100FFC00801BA84201D8002DECD1002323632022B2
:10100C0084F83D2084F83E30226C42F020022264A9
:10101C0084F83C30012000E0002070BD0120FCE78A
:10102C00002800F0CC80F8B5044690F83D30002B39
:10103C0077D0242384F83D302268136823F0010311
:10104C0013602268136843F400431360226813682A
:10105C0023F40043136000F08DFC62685A4B9A42F3
:10106C0064D85A4B98428CBF00230123002B40F0CC
:10107C00A880574DA5FB0035AF0C2668716821F090
:10108C003F0141EA9541716021680B6A23F03F03EF
:10109C0065684D4A95424FD87A1C13430B622568FC
:1010AC00E96921F44F4121F0FF016368464A9342FC
:1010BC004CD801385B00B0FBF3F0013040F6FC7308
:1010CC00184278D0C0F30B030B43EB6121680B681B
:1010DC0023F0C003E269206A024313430B602168CA
:1010EC008B6823F4034323F0FF032269E068024377
:1010FC0013438B602168CB6823F0FF036269A069FE
:10110C0002431343CB602268136843F0010313605E
:10111C0000202064202384F83D30206384F83E00B6
:10112C00F8BD80F83C3001F0EDFD82E7294B984288
:10113C008CBF0023012399E74FF4967202FB07F250
:10114C00254DA5FB025292090132A6E7A268BAB955
:10115C00461E03EB4307B6FBF7F60136C6F30B0648
:10116C00B6FA86F6760946BBC2B9421E03EB4303B8
:10117C00B2FBF3F20132C2F30B0242F40043A3E7D9
:10118C00461E03EB830707EB8707B6FBF7F6013622
:10119C00C6F30B06B6FA86F67609E4E7421E03EBB5
:1011AC00830303EB8303B2FBF3F20132C2F30B02B2
:1011BC0042F4404388E7042386E7012384E70120B7
:1011CC0070470120ACE700BFA08601007F841E00A1
:1011DC0083DE1B43FF083D00D34D62102DE9F04325
:1011EC0085B004460F46914698460C9EFEF7EAFFE2
:1011FC00054694F83D00C0B2202804D0022738469A
:10120C0005B0BDE8F0830095192301224F49204613
:10121C00FFF7C8FD002840F0928094F83C30012B79
:10122C0000F08F80012384F83C3023681A6812F098
:10123C00010F03D11A6842F001021A602268136888
:10124C0023F400631360212384F83D30102384F8C9
:10125C003E3000232364C4F82490A4F82A80638DC4
:10126C0023853B4BE3622B46324639462046FFF73B
:10127C0029FE0746002866D10023039323685A6988
:10128C0003929B690393039B11E0236C042B01D005
:10129C000127B4E72268136843F400731360F7E77F
:1012AC002A4631462046FFF791FE00282ED1238D89
:1012BC00002B36D02A4631462046FFF75DFE00282B
:1012CC00E3D1626A236812781A61616A4B1C63620B
:1012DC00638D9BB2013B9BB26385238D013B9BB21B
:1012EC0023852268506910F0040FD9D0002BD7D079
:1012FC004B781361636A01336362638D9BB2013B6C
:10130C009BB26385238D013B2385C9E7236C042B9A
:10131C0001D0012773E72268136843F4007313604C
:10132C00F7E72268136843F400731360202384F8F2
:10133C003D30002384F83E3084F83C305FE70227D0
:10134C005DE702275BE7012759E700BF02001000A9
:10135C000000FFFF82B0084B1B68084AA2FB032366
:10136C005B0A00FB03F3019300BF019B5A1E019221
:10137C00002BF9D102B070472C000020D34D621025
:10138C00002800F0F18170B582B00446036813F0B8
:10139C00010F2CD0AA4B5B6803F00C03042B1DD05F
:1013AC00A74B5B6803F00C03082B12D06368B3F5F2
:1013BC00803F41D0002B55D103F1804303F504331A
:1013CC001A6822F480321A601A6822F480221A6099
:1013DC0037E09B4B5B6813F4803FE7D0984B1B685E
:1013EC0013F4003F03D06368002B00F0BF81236827
:1013FC0013F0020F75D0924B5B6813F00C0F5FD09B
:10140C008F4B5B6803F00C03082B54D02369002B23
:10141C0000F089808B4B01221A60FEF7D3FE054643
:10142C00874B1B6813F0020F74D1FEF7CBFE401BE9
:10143C000228F5D903209EE1814A136843F48033D6
:10144C001360636843B3FEF7BDFE05467C4B1B6817
:10145C0013F4003FCBD1FEF7B5FE401B6428F5D941
:10146C00032088E1B3F5A02F09D0754B1A6822F43C
:10147C0080321A601A6822F480221A60E1E703F1C4
:10148C008043A3F53C331A6842F480221A601A6830
:10149C0042F480321A60D4E7FEF794FE0546684B9E
:1014AC001B6813F4003FA2D0FEF78CFE401B64288F
:1014BC00F5D903205FE1624B5B6813F4803FA5D143
:1014CC005F4B1B6813F0020F03D02369012B40F014
:1014DC004F815B4A136823F0F803616943EAC10347
:1014EC001360236813F0080F32D0A369002B45D08A
:1014FC00554B01221A60FEF765FE0546504B5B6AA0
:10150C0013F0020F21D1FEF75DFE401B0228F5D926
:10151C00032030E14A4A136823F0F803616943EA77
:10152C00C1031360DDE7474B00221A60FEF74AFE49
:10153C000546434B1B6813F0020FD2D0FEF742FE58
:10154C00401B0228F5D9032015E10120FFF702FF0B
:10155C00236813F0040F00F09780394BDB6913F00C
:10156C00805F1DD1364BDA6942F08052DA61DB695B
:10157C0003F080530193019B012512E0324B0022B2
:10158C001A60FEF71FFE05462D4B5B6A13F0020F27
:10159C00DED0FEF717FE401B0228F5D90320EAE047
:1015AC0000252A4B1B6813F4807F11D0E368012BB4
:1015BC0022D0002B38D103F1804303F504331A6A8F
:1015CC0022F001021A621A6A22F004021A6218E06E
:1015DC001E4A136843F480731360FEF7F3FD06464E
:1015EC001A4B1B6813F4807FE0D1FEF7EBFD801BD8
:1015FC006428F5D90320BEE0114A136A43F00103B5
:10160C001362E36873B3FEF7DDFD06460C4B1B6AF1
:10161C0013F0020F37D1FEF7D5FD801B41F2883352
:10162C009842F3D90320A6E0052B11D0044B1A6A7B
:10163C0022F001021A621A6A22F004021A62E0E72E
:10164C000010024000004242800442420070004000
:10165C004D4B1A6A42F004021A621A6A42F00102F5
:10166C001A62CEE7FEF7AEFD0646474B1B6A13F037
:10167C00020F08D0FEF7A6FD801B41F2883398427A
:10168C00F3D9032077E0E5B9E369002B72D03E4A29
:10169C00526802F00C02082A56D0022B17D03B4B92
:1016AC0000221A60FEF78EFD0446374B1B6813F0C0
:1016BC00007F47D0FEF786FD001B0228F5D90320DA
:1016CC0059E0314AD36923F08053D361DCE72F4BC7
:1016DC0000221A60FEF776FD05462B4B1B6813F0B3
:1016EC00007F06D0FEF76EFD401B0228F5D90320C3
:1016FC0041E0236AB3F5803F1AD023494B6823F4A9
:10170C007413226A606A024313434B601F4B01221D
:10171C001A60FEF757FD04461B4B1B6813F0007F45
:10172C000ED1FEF74FFD001B0228F5D9032022E055
:10173C00154A536823F40033A1680B435360DCE76C
:10174C00002018E0002016E0012B16D00E4B5B6831
:10175C0003F48031226A914211D103F47013626A4E
:10176C0093420ED1002006E001207047012002E0D8
:10177C00012000E0002002B070BD0120FBE7012039
:10178C00F9E70120F7E700BF001002406000424279
:10179C0086B0164B0FCB0DF1180C0CE90F0040F274
:1017AC000123ADF80430124B5B6803F00C02082ADD
:1017BC0002D0104806B07047C3F38342624412F85B
:1017CC00102C13F4803F0CD0094B5B68C3F34043DF
:1017DC00634413F8143C074800FB02F0B0FBF3F031
:1017EC00E8E7054800FB02F0E4E700BFE82F00083B
:1017FC000010024000127A0000093D00002800F0A1
:10180C00A08070B50D460446524B1B6803F00703CD
:10181C008B420BD24F4A136823F007030B43136020
:10182C00136803F007038B4240F08D80236813F09C
:10183C00020F17D013F0040F04D0474A536843F437
:10184C00E0635360236813F0080F04D0424A5368D6
:10185C0043F460535360404A536823F0F003A1688B
:10186C000B435360236813F0010F31D06368012BD5
:10187C0020D0022B25D0384A126812F0020F64D007
:10188C0035494A6822F0030213434B60FEF79AFC79
:10189C000646314B5B6803F00C036268B3EB820FB6
:1018AC0016D0FEF78FFC801B41F288339842F0D99A
:1018BC00032045E0284A126812F4003FE0D10120D1
:1018CC003EE0254A126812F0007FD9D1012037E0A2
:1018DC00204B1B6803F00703AB420AD91D4A13685F
:1018EC0023F007032B431360136803F00703AB4289
:1018FC002DD1236813F0040F06D0174A536823F434
:10190C00E063E1680B435360236813F0080F07D0C2
:10191C00114A536823F46053216943EAC1035360AD
:10192C00FFF736FF0C4B5B68C3F303130B4AD35C16
:10193C00D8400B4B18600B4B1868FEF701FC0020CD
:10194C0070BD012070470120FAE70120F8E7012063
:10195C00F6E700BF0020024000100240D02F000824
:10196C002C00002004000020014B1868704700BFB9
:10197C002C00002008B5FFF7F7FF044B5B68C3F39E
:10198C000223034AD35CD84008BD00BF00100240BC
:10199C00E02F000870B4036A23F001030362036AAA
:1019AC004668826922F073020C6844EA020523F04F
:1019BC0002028B6813430D4CA04209D00B4CA04281
:1019CC000DD0466085614A684263036270BC704703
:1019DC0023F00803CA68134323F00403EEE726F44C
:1019EC0040764A6932438E691643EAE7002C01407F
:1019FC0030B4036A23F480730362036A4568C269D6
:101A0C0022F073020C68224323F400738C6843EABF
:101A1C0004230F4CA04209D00D4CA0420ED04560BF
:101A2C00C2614A68C263036230BC704723F400632E
:101A3C00CC6843EA042323F48063EDE725F4405596
:101A4C004C6945EA04158C6945EA0415E7E700BFC3
:101A5C00002C014030B4036A23F480530362036A00
:101A6C004468C26922F4E6420D6842EA052223F476
:101A7C0000538D6843EA0533074DA84206D04460F5
:101A8C00C2614A680264036230BC704724F480442B
:101A9C004D6944EA8514F2E7002C014030B4036A26
:101AAC00056A25F001050562846924F0F00444EA16
:101ABC00021423F00A030B438461036230BC7047A9
:101ACC0030B4056A25F0100505628469036A24F4B4
:101ADC00704444EA023423F0A00343EA0113846106
:101AEC00036230BC7047836823F070030B4343F0F0
:101AFC00070383607047000090F83D30DBB2012B88
:101B0C0027D1022380F83D300268D36843F00103EB
:101B1C00D3600368114A934210D0B3F1804F0DD0BB
:101B2C00A2F59432934209D002F58062934205D01B
:101B3C001A6842F001021A60002070479A6802F09D
:101B4C000702062A07D01A6842F001021A60002028
:101B5C007047012070470020704700BF002C0140E7
:101B6C007047704770477047704710B5044603685C
:101B7C001A6912F0020F11D0DA6812F0020F0DD0B0
:101B8C006FF002021A610123037703689B6913F05B
:101B9C00030F70D0FFF7E6FF0023237723681A6941
:101BAC0012F0040F12D0DA6812F0040F0ED06FF09E
:101BBC0004021A610223237723689B6913F4407F84
:101BCC005FD02046FFF7CEFF0023237723681A69E6
:101BDC0012F0080F12D0DA6812F0080F0ED06FF066
:101BEC0008021A61042323772368DB6913F0030FBF
:101BFC004ED02046FFF7B6FF0023237723681A69DF
:101C0C0012F0100F12D0DA6812F0100F0ED06FF025
:101C1C0010021A61082323772368DB6913F4407FD1
:101C2C003DD02046FFF79EFF0023237723681A69D7
:101C3C0012F0010F03D0DA6812F0010F36D12368CD
:101C4C001A6912F0800F03D0DA6812F0800F34D1C9
:101C5C0023681A6912F0400F03D0DA6812F0400FB3
:101C6C0032D123681A6912F0200F03D0DA6812F00F
:101C7C00200F30D110BDFFF774FF2046FFF773FF24
:101C8C008AE72046FFF76DFF2046FFF76CFF9BE7C6
:101C9C002046FFF766FF2046FFF765FFACE72046BE
:101CAC00FFF75FFF2046FFF75EFFBDE76FF0010215
:101CBC001A61204600F028FFC1E76FF080021A611C
:101CCC00204600F0AAFAC3E76FF040021A612046E2
:101CDC00FFF74AFFC5E76FF020021A61204600F0BB
:101CEC009BFAC7E703681B4A90420AD0B0F1804FB9
:101CFC0007D0A2F59432904203D002F58062904254
:101D0C0003D123F070034A681343124A90420AD05D
:101D1C00B0F1804F07D0A2F59432904203D002F577
:101D2C008062904203D123F44073CA68134323F0BA
:101D3C0080034A69134303608B68C3620B68836238
:101D4C00044B984202D00123436170470B69036333
:101D5C00F9E700BF002C014040B310B5044690F8E1
:101D6C003D30F3B1022384F83D30214651F8040B89
:101D7C00FFF7B8FF012384F8463084F83E3084F82E
:101D8C003F3084F8403084F8413084F8423084F895
:101D9C00433084F8443084F8453084F83D300020DA
:101DAC0010BD80F83C3000F0DFFFDBE7012070470E
:101DBC0040B310B5044690F83D30F3B1022384F8DB
:101DCC003D30214651F8040BFFF78CFF012384F8BA
:101DDC00463084F83E3084F83F3084F8403084F844
:101DEC00413084F8423084F8433084F8443084F82D
:101DFC00453084F83D30002010BD80F83C30FFF7B2
:101E0C00AFFEDBE70120704730B4036A23F0100308
:101E1C000362036A4468826922F4E6420D6842EA6E
:101E2C00052223F020038D6843EA05130E4DA842CA
:101E3C0009D00D4DA8420ED0446082614A6882637D
:101E4C00036230BC704723F08003CD6843EA05136E
:101E5C0023F04003EDE724F440644D6944EA850423
:101E6C008D6944EA8504E7E7002C014038B590F809
:101E7C003C30012B60D004460D46012380F83C30E9
:101E8C000C2A1AD8DFE802F0071919191D191919AB
:101E9C003119191944000068FFF77CFD2268936919
:101EAC0043F0080393612268936923F00403936160
:101EBC002268936929690B439361002084F83C00E4
:101ECC0038BD0068FFF7A0FF2268936943F40063F4
:101EDC0093612268936923F4806393612268936908
:101EEC00296943EA01239361E7E70068FFF780FD66
:101EFC002268D36943F00803D3612268D36923F0C5
:101F0C000403D3612268D36929690B43D361D4E7F5
:101F1C000068FFF79FFD2268D36943F40063D36127
:101F2C002268D36923F48063D3612268D369296959
:101F3C0043EA0123D361C0E70220C1E710B48468EF
:101F4C0024F47F4442EA03220A432243826010BCF9
:101F5C00704790F83C30012B66D010B50446012335
:101F6C0080F83C30022380F83D300268936823F4FB
:101F7C007F4323F0770393600B68602B40D022D80B
:101F8C00402B47D00BD9502B0ED1CA68496800683A
:101F9C00FFF784FD50212068FFF7A5FD04E0202BFE
:101FAC000CD008D9302B09D0012384F83D30002007
:101FBC0084F83C0010BD0BB1102BF5D119462068EC
:101FCC00FFF791FDF0E7702B0ED0B3F5005FEBD16E
:101FDC00CB684A6889680068FFF7B0FF226893688D
:101FEC0043F480439360DFE7CB684A6889680068F4
:101FFC00FFF7A4FF2268936843F077039360D3E75D
:10200C00CA6849680068FFF75BFD60212068FFF72C
:10201C006AFDC9E7CA6849680068FFF73FFD4021BF
:10202C002068FFF760FDBFE70220704710B401F095
:10203C001F01012303FA01F4036A23EA0403036278
:10204C00036A02FA01F10B43036210BC70470000F3
:10205C0010B50446084651BB94F83E30DBB2013B48
:10206C0018BF0123002B5BD1002839D1022384F83F
:10207C003E30012201462068FFF7D8FF23682A4A28
:10208C0093423DD02368284A93423ED0B3F1804F0F
:10209C003BD0A2F59432934237D002F58062934242
:1020AC0033D01A6842F001021A60002039E004298A
:1020BC0008D008290DD094F84130DBB2013B18BF91
:1020CC000123CFE794F83F30DBB2013B18BF01236B
:1020DC00C8E794F84030DBB2013B18BF0123C1E7DD
:1020EC00042805D0082807D0022384F84130C0E723
:1020FC00022384F83F30BCE7022384F84030B8E771
:10210C005A6C42F400425A64BCE79A6802F0070227
:10211C00062A07D01A6842F001021A60002000E07B
:10212C00012010BD0020FCE7002C014038B504460E
:10213C000D4600220068FFF779FF23681B4A934283
:10214C0014D02368196A41F21112114208D1196A8C
:10215C0040F24442114203D11A6822F001021A6083
:10216C009DB9012384F83E30002038BD196A41F234
:10217C0011121142E5D1196A40F244421142E0D1E8
:10218C005A6C22F400425A64DBE7042D05D0082D6A
:10219C0007D0012384F84130E6E7012384F83F306F
:1021AC00E2E7012384F84030DEE700BF002C014059
:1021BC0090F83C30012B2BD030B4012380F83C300C
:1021CC00022380F83D3003685C689D6824F070043D
:1021DC000A6822435A6003680E4A93420AD0B3F14C
:1021EC00804F07D0A2F59432934203D002F580625F
:1021FC00934204D125F080054A6815439D60012364
:10220C0080F83D30002380F83C30184630BC7047D5
:10221C0002207047002C0140704770470D4A13692B
:10222C0043F0020313610B4BDB6813F0010FFAD17F
:10223C00084B58611A6942F040021A61054BDB6881
:10224C0013F0010FFAD1034A136923F0020313614F
:10225C00704700BF0020024008B5FEF7C5FB0448DC
:10226C00FFF7DCFF034A136923F00203136108BD77
:10227C0000C001080020024008B5FEF7CFFB08BDE6
:10228C0008B50A46002300F1006101F5E031012098
:10229C00FEF702FC08BD00F1006000F5E03000889C
:1022AC0080B27047F8B506460D461F46012A01D08C
:1022BC0000241CE0FFF7D0FF0A20FDF789FF002463
:1022CC00AC420AD0315D07EB4400FFF7D9FF142074
:1022DC00FDF77EFF0134E4B2F2E7FFF7CDFF08E033
:1022EC0007EB4400FFF7D7FF30550134E4B2AC42A2
:1022FC00F6D1F8BD00B583B001290AD0A021322057
:10230C0000900648FEF76AFF28B9012003B05DF87B
:10231C0004FBA221F3E70020F8E700BF2003002014
:10232C0010B50D4C00231A4608212046FFF7BAFFC2
:10233C00082300221946E018FFF7B4FF10230022EF
:10234C000821E018FFF7AEFF182300220821E0183F
:10235C00FFF7A8FF10BD00BF0800002010B50D4C02
:10236C000023012208212046FFF79CFF08230122AD
:10237C001946E018FFF796FF102301220821E018F8
:10238C00FFF790FF182301220821E018FFF78AFFBE
:10239C0010BD00BF08000020F8B53E4B1B783E4A2C
:1023AC001278934203D33B4A5278934224D93B4C44
:1023BC0001224FF400712046FEF7CCFC384D01226F
:1023CC0011462846FEF7C6FC002210212046FEF7D7
:1023DC00C1FC002201212846FEF7BCFC0122102181
:1023EC002046FEF7B7FC2B4A13780133DBB213708F
:1023FC0013F0800F1DD1F8BD284C00224FF4007152
:10240C002046FEF7A7FC264D012211462846FEF772
:10241C00A1FC002210212046FEF79CFC0022012189
:10242C002846FEF797FC012210212046FEF792FC6D
:10243C00D9E71A4E012208213046FEF78BFC002703
:10244C00144B1F70144C62780132D2B26270144D6E
:10245C0002F0010204212846FEF77CFC6278C2F3EC
:10246C00400208212846FEF775FC6278C2F3800210
:10247C0010212846FEF76EFC6278C2F3C0022021C0
:10248C002846FEF767FC3A4608213046FEF762FC08
:10249C00B1E700BF4C00002028000020000C0140D8
:1024AC000008014038B504460378552B08D0664B1C
:1024BC00DB79012B26D0644B1B78012B45D038BD22
:1024CC00C379AA2BF3D1604B01221A7042785A704F
:1024DC00022301E00133DBB2072B06D0E25C002AB9
:1024EC00F8D0594A00211170F4E7574B1B78012B97
:1024FC00DDD1554B01229A700022DA701A715A7193
:10250C009A71D4E72378AA2B08D04F4A937943F0D9
:10251C00040393714C4B0022DA71CCE7E379552B11
:10252C00F3D1A278484B5B799A4205D0464A93790D
:10253C0043F002039371EDE74348437820330122C3
:10254C0011460530FFF7AEFEE4E73F4B9B78012BBD
:10255C006CD023783C4A51790B44DBB261780B4444
:10256C00DBB2A1780B44DBB2E1780B44DBB221790E
:10257C000B44DBB261790B44DBB2A1790B44DBB2C7
:10258C00E1790B445371D178481CC0B225782F4B9C
:10259C005D54411CC9B265781D54481CC0B2A57865
:1025AC005D54411CC9B2E5781D54481CC0B2257954
:1025BC005D54411CC9B265791D54481CC0B2A57943
:1025CC005D54411CC9B2D170E2791A5419BB1E4B2F
:1025DC005B780F2B2ED91C4A01211172103B9BB238
:1025EC001B019BB211790B449BB21B025381164801
:1025FC004FF48073154A017A4089FFF77BFE10F087
:10260C00FF0F04D1104A937943F0010393710E4AE2
:10261C001379013313710C4B1B79102B7FF44FAFD3
:10262C00094B00221A700122DA7148E7064B00228E
:10263C009A7044E7044900220A720A7902EB0313E8
:10264C001B024B81D3E700BF4E000020C8000020C6
:10265C0070B504460D460378062B17D8DFE803F057
:10266C0004172516162A2D00154E04213046FFF7A7
:10267C005DFD637813494B6004223046FFF7F6FB8F
:10268C0004213046FFF7E4FC63786B7170BD43782E
:10269C0001220A7013F0800F05D100224A7003F05A
:1026AC001F03AB70F2E74A70F9E74378CB7083787D
:1026BC000B71EBE743788B71E8E74378CB71E5E777
:1026CC009C0300206000002010B5503803280AD865
:1026DC00DFE800F00A162239C85C1C4AD0540133DA
:1026EC00DBB2082BF8D110BD0023FAE703F1080286
:1026FC00CC5C164884540133DBB2082BF6D1F2E7DC
:10270C000023FAE703F11002CC5C10488454013327
:10271C00DBB2082BF6D1E6E70023FAE703F1180247
:10272C00CC5C0A4884540133DBB2082BF6D100236D
:10273C00012220210548FFF7B5FD1920FDF748FDC2
:10274C00FEF7E4F8CFE70023EFE700BFE00200203C
:10275C0000BB38B50C461D46422909D0412C0BD084
:10276C00402C0ED040F6FC732340502B0DD038BDBE
:10277C001846FFF797FEF1E707492846FFF768FF71
:10278C00EEE76A78054B1A73ECE729462046FFF70B
:10279C009BFFECE7704700BF180300204E000020A1
:1027AC0000B58BB001AB03AA0021FDF778FE01AB9D
:1027BC00079A0399FFF7CCFF0BB05DF804FB00B54B
:1027CC008BB001AB03AA0121FDF769FE01AB079A9F
:1027DC000399FFF7BDFF0BB05DF804FB2DE9F8433F
:1027EC00144664230360012646600025C56085609D
:1027FC00022303610575AA230B7055234B70556199
:10280C009561D6614FF4046313605560DFF85890FE
:10281C00C2F80890D560156116624FF00E08C2F828
:10282C002480104F11463846FDF78CFD6661A5617A
:10283C00E6614FF4206323606560C4F80890E5609E
:10284C0026612662C4F8248021463846FDF77AFDBD
:10285C003846FDF7F6FD12213846FDF7C0FEBDE8FF
:10286C00F88300BF7403002080FF01002DE9F043C2
:10287C0089B0002404940594069407942F4B9A690C
:10288C0042F010029A619A6902F010020092009ACA
:10289C009A6942F020029A619A6902F02002019230
:1028AC00019A9A6942F004029A619A6902F0040250
:1028BC000292029A9A6942F008029A619B6903F0AB
:1028CC0008030393039BDFF87C9022464FF40051DE
:1028DC004846FEF73FFADFF87080224648F23F2167
:1028EC004046FEF737FA164F22464FF61971384616
:1028FC00FEF730FA4FF40053049301260596069424
:10290C000225079504A94846FEF714F948F23F231F
:10291C00049305960694079504A94046FEF70AF918
:10292C004FF61973049305960694079504A9384637
:10293C00FEF700F909B0BDE8F08300BF00100240BB
:10294C00000C0140001001400008014030B587B078
:10295C000025029503950495059500950195114C5C
:10296C00114B236048236360A5604FF47A73E360D6
:10297C00256165618023A3612046FFF7EDF94FF4D3
:10298C008053029302A92046FFF7E3FA00950195C4
:10299C0069462046FFF70CFC2046FFF7ADF807B060
:1029AC0030BD00BFE4030020002C014030B587B0DF
:1029BC000025029503950495059500950195104CFD
:1029CC004FF08043236024236360A5600723E360FA
:1029DC0025618023A3612046FFF7BEF94FF4805395
:1029EC00029302A92046FFF7B4FA009501956946B7
:1029FC002046FFF7DDFB2046FFF77EF807B030BD21
:102A0C002C04002030B58FB000240A940B940C9445
:102A1C000D940894099401940294039404940594DD
:102A2C00069407941A4D1B4B2B6024236B60AC60EF
:102A3C004FF48073EB602C61AC612846FFF78CF986
:102A4C004FF480530A930AA92846FFF782FA2846C6
:102A5C00FFF7AEF90894099408A92846FFF7A8FBDC
:102A6C006023019302940394059404220DEB02015C
:102A7C002846FFF7FBF9084B019A1A60039A9A60F3
:102A8C00059A1A61284600F0B7F90FB030BD00BFA7
:102A9C009C030020000400406000002008B50B4897
:102AAC000B4B03600923436000238360C3604FF426
:102ABC00802202614FF48012426103764376837662
:102ACC00C37603774377FDF797FB08BD74030020AB
:102ADC000064004008B50948094B0360094B43608A
:102AEC0000238360C3604FF48042026143618361C1
:102AFC00C3610362FEF794FA08BD00BF20030020F7
:102B0C0000540040A086010008B50368B3F1804F63
:102B1C0000D008BD4FF400410248FEF721F9FFF741
:102B2C003BFCF6E70008014030B591B00024099455
:102B3C000B940C9401940294039404940594012234
:102B4C0006924FF48033079308940A9202250D9550
:102B5C000E934FF4E0130F9306A8FEF711FC0F230E
:102B6C000193029503944FF4A063049305942946B2
:102B7C0001A8FEF743FE11B030BD000038B5FDF7DB
:102B8C0003FBFFF7D1FFFFF771FEFFF7DFFEFFF747
:102B9C0039FFFFF783FFFFF79DFFFFF707FF0421C6
:102BAC001A48FFF755FA1A4A1A491B48FFF716FE3E
:102BBC00FFF7D4FB3220FDF70BFBFFF7B1FB002531
:102BCC002C4611E0154B00221A7011E01D46013401
:102BDC00E4B2142C05D14FF400511148FEF7C0F8A3
:102BEC0000240A20FDF7F4FA0C4B1B78012BE9D0DA
:102BFC000A4BDB79002BE9D00135EDB2AB42E6D1C3
:102C0C0002210848FEF7ACF80025E0E79C03002001
:102C1C00A0000020D4020020000300201803002094
:102C2C00001001400008014082B00E4B9A6942F03E
:102C3C0001029A619A6902F001020092009ADA6923
:102C4C0042F08052DA61DB6903F080530193019BFF
:102C5C00054A536823F0E06343F00073536002B0FD
:102C6C00704700BF001002400000014030B587B033
:102C7C000023029303930493059302681F4B9A421B
:102C8C0001D007B030BD03F5D633DA6942F00072DB
:102C9C00DA61DA6902F000720092009A9A6942F0E5
:102CAC0004029A619B6903F004030193019B4FF4A6
:102CBC0000630293002403940494114D02A9284646
:102CCC00FDF738FF4FF48053029302230393032341
:102CDC00059302A92846FDF72DFF22460421142056
:102CEC00FDF7D2FD1420FDF703FE22460521152029
:102CFC00FDF7CAFD1520FDF7FBFDC2E7006400409F
:102D0C000008014010B586B000230293039304938E
:102D1C0005930268114B9A4201D006B010BD104CBD
:102D2C00A36943F00803A361A36903F008030093AC
:102D3C00009BC0230293122303930323059302A940
:102D4C000848FDF7F7FEE36943F40013E361E36918
:102D5C0003F400130193019BDFE700BF0054004014
:102D6C0000100240000C014000B585B003681F4AFA
:102D7C00934208D0B3F1804F18D01D4A934229D00A
:102D8C0005B05DF804FB1B4B9A6942F400629A6132
:102D9C009B6903F400630193019B002211461920E7
:102DAC00FDF772FD1920FDF7A3FDE9E703F50433E8
:102DBC00DA6942F00102DA61DB6903F00103029384
:102DCC00029B002211461C20FDF75EFD1C20FDF726
:102DDC008FFDD5E7074BDA6942F00202DA61DB6955
:102DEC0003F002030393039BCAE700BF002C0140CE
:102DFC00000400400010024000B587B0002302938D
:102E0C000393049305930268114B9A4202D007B0C6
:102E1C005DF804FB03F503339A6942F008029A61EA
:102E2C009B6903F008030193019B20230293022367
:102E3C000393059302A90748FDF77CFE064A5368E5
:102E4C0023F4406343F0E06343F400635360DEE734
:102E5C0000040040000C0140000001407047FEE7F8
:102E6C00FEE7FEE7FEE770477047704708B5FDF7D1
:102E7C009DF908BD08B50248FDF7CEFB08BD00BFA3
:102E8C007403002008B50248FDF7C6FB08BD00BF5F
:102E9C007403002008B50248FEF767FE08BD00BFAA
:102EAC00E403002010B5074C012211462046FDF723
:102EBC0051FF0548FEF759FE002201212046FDF77F
:102ECC0049FF10BD000C01402C0400200F4B1A6868
:102EDC0042F001021A6059680D4A0A405A601A6899
:102EEC0022F0847222F480321A601A6822F4802252
:102EFC001A605A6822F4FE025A604FF41F029A605C
:102F0C00044B4FF000629A60704700BF0010024003
:102F1C000000FFF800ED00E0002103E00B4B5B58D4
:102F2C00435004310A480B4B42189A42F6D30A4AD2
:102F3C0002E0002342F8043B084B9A42F9D3FFF716
:102F4C00C5FF00F00FF8FFF719FE704704300008BA
:102F5C00000000203000002030000020740400200D
:102F6C00FEE7000070B500260C4D0D4C641BA41040
:102F7C00A64209D100F01AF800260A4D0A4C641B2F
:102F8C00A410A64205D170BD55F8043B98470136F4
:102F9C00EEE755F8043B98470136F2E7FC2F0008A2
:102FAC00FC2F0008FC2F000800300008F8B500BF0B
:102FBC00F8BC08BC9E467047F8B500BFF8BC08BC0E
:042FCC009E46704766
:102FD00000000000000000000102030406070809C9
:102FE00000000000010203040203040506070809AB
:0C2FF0000A0B0C0D0E0F1010000000006A
:042FFC003101000897
:043000000D010008B6
:10300400010000001000000008060C060602060A73
:103014000400000000000000051E0A1E1E081E0F0A
:103024000A000000000000007FFF00000024F400FC
:0400000508002F259B
:00000001FF
