:10000000B7EF0CF00000000092EF0CF000000000D1
:0C00100000000000000000002FEF0DF0C9
:10001C00BBC003F0BCC004F0BDC005F0BEC006F010
:10002C000001BFA72CD003C002F00232029E0232A4
:10003C00029E0232029E050E016E04C000F00150B9
:10004C0004E000360090FF0FFBD7B9C0E1FFBAC047
:10005C00E2FF00500210E66EB94BBA2B050E016E92
:10006C0003C000F0015004E000360090FF0FFBD7F6
:10007C00B9C0E1FFBAC0E2FF00C0E6FF42D0050EF6
:10008C00006E05C002F0005004E00232029EFF0F29
:10009C00FBD706C000F0003600900036009000360A
:1000AC000090B9C0E1FFBAC0E2FF00500210E66E4A
:1000BC00B94BBA2B05C000F000360090003600900A
:1000CC0000360090E00E0016080E0010016E030EB4
:1000DC000514006EB9C0E1FFBAC0E2FF0050011078
:1000EC00E66EB94BBA2BB9C0E1FFBAC0E2FF04C04F
:1000FC00E6FFB94BBA2BB9C0E1FFBAC0E2FF03C0AF
:04010C00E6FF1200F8
:100110000001B4530AE0B3C06FFFE00E6E14016E2D
:100120000150B31901E0F9D702D0B3C06FFF12003C
:100130000001B307B407B507B607B707060E006E90
:10014000B3C070FF005004E070367090FF0FFBD713
:10015000B4517012B5C071FF7136719071367190E3
:1001600071367190B7517112B8B501D0718CB8A1C8
:1001700001D0718EB6C072FFB8A301D0728C12008C
:10018000B3C097F0B4C098F0000E0001996F9A6F59
:06019000010E966F120043
:10019600FF0E956E828A829C0001B351010A02E12C
:1001A600818801D081988282818C210E0D6E0D2E60
:0601B600FED7819C12003F
:1001BC008282818C210E0D6E0D2EFED7819C829C2D
:1001CC000001B351010A02E1818801D08198829A21
:0601DC00C00E956E12003A
:1001E2000001B76BC580310E0D6E0D2EFED70000DB
:1001F2000000A10EC96E310E0D6E0D2EFED700004D
:100202000000010EB35D016E000EB459026E000EC5
:10021200021802E10150B71919E0C586310E0D6EC0
:100222000D2EFED700000000B751B525E16E000E7D
:10023200B621E26EC9CFE6FFC59AC588B72B310E4B
:100242000D6E0D2EFED700000000DBD7C586310EE5
:100252000D6E0D2EFED700000000B751B525E16EE0
:10026200000EB621E26EC9CFE6FFC58AC588310EFF
:100272000D6E0D2EFED700000000C584310E0D6EEE
:0A0282000D2EFED700000000120050
:10028C00010E0001B66FC580310E0D6E0D2EFED71E
:10029C0000000000B551010A03E1A20EC96E02D0A4
:1002AC00A00EC96E310E0D6E0D2EFED70000000093
:1002BC00C5BC15D0B4C0C9FF310E0D6E0D2EFED7C6
:1002CC0000000000C5BC09D0B3C0C9FF310E0D6ED3
:1002DC000D2EFED70000000001D0B66B01D0B66B1E
:1002EC00C584310E0D6E0D2EFED700000000B6C079
:0402FC0000F01200FC
:100300000134083609360450085E0550D8A0053C73
:10031000095E003601360F0E0C6E013408360936C0
:10032000045000A006D0085E0550D8A0053C095E28
:1003300005D008260550D8B0053C09260036013600
:100340000C2EEBD700B006D0045008260550D8B0CC
:08035000053C09260000120023
:1003580061D0000E0001B96F0F0EBA6FB4C0BBF0C8
:10036800B5C0BCF0B6C0BDF0B7C0BEF0B8C0BFF0F5
:1003780051DE61D0040EB96F0F0EBA6FB4C0BBF076
:10038800B5C0BCF0B6C0BDF0B7C0BEF0B8C0BFF0D5
:1003980041DE51D0080EB96F0F0EBA6FB4C0BBF072
:1003A800B5C0BCF0B6C0BDF0B7C0BEF0B8C0BFF0B5
:1003B80031DE41D00C0EB96F0F0EBA6FB4C0BBF06E
:1003C800B5C0BCF0B6C0BDF0B7C0BEF0B8C0BFF095
:1003D80021DE31D0100EB96F0F0EBA6FB4C0BBF06A
:1003E800B5C0BCF0B6C0BDF0B7C0BEF0B8C0BFF075
:1003F80011DE21D0140EB96F0F0EBA6FB4C0BBF066
:10040800B5C0BCF0B6C0BDF0B7C0BEF0B8C0BFF054
:1004180001DE11D00001B351000A9BE0B351010A7B
:10042800A9E0B351020AB6E0B351030AC3E0B351DD
:08043800040AD0E0DFD7120036
:10044000220E0C6E086A096A0A6A0B6A0C06D8B496
:100450001FD0D8900B320A320932083203320232EE
:1004600001320032D8A0F2D70C06D8B409D004501B
:1004700008260550092206500A2207500B22EAD707
:10048000045008260550092206500A2207500B2264
:02049000120058
:100492000001B351000A10E1180EB96F0F0EBA6FC6
:1004A200B4C0BBF0B5C0BCF0B6C0BDF0B7C0BEF0C2
:1004B200B8C0BFF0B2DD0FD01C0EB96F0F0EBA6F0D
:1004C200B4C0BBF0B5C0BCF0B6C0BDF0B7C0BEF0A2
:0804D200B8C0BFF0A2DD12006A
:1004DA000450000A08E10550000A05E1FF0E006E0B
:1004EA007F0E016E57D00D6A096A086A0150001022
:1004FA00D8B4000C015005180A6E0ABE0D1E0B6A0C
:10050A0005AE05D0041E051E042AD8B4052A01AE7C
:10051A0005D0001E011E002AD8B4012A0150051078
:10052A000A6E0ABE10D0E7DE0BB020D00DAE000C6A
:10053A00001E011E002AD8B4012A081E091E082A14
:10054A00D8B4092A000C05AE0DD001BE07D001505F
:10055A00096E0050086E016A006AE8D7016A006AEB
:10056A00002A000C011E001E0B2ADDD7082AD8B467
:10057A00092A0450085CD8A4D9D70550095CD8A424
:10058A00D5D7096A086A002AD8B4012A01AECED79B
:06059A000000FF0C12003E
:1005A00093949386800E0001B36FFF0EB46FB0DD9D
:1005B000A9C0B3F0AAC0B4F0ABC0B5F0ACC0B6F0FF
:1005C000ADC0B7F0AEC0B8F0B3DD600EAE15606E72
:1005D000100EAE15016E0150100AD8B4608460CFC1
:1005E00050FFB36BB46BB56BB66BB76BF70EB86FF0
:1005F00050DF010EB36FB46BB56BB66BB76BF70E14
:10060000B86F47DF600EAE15006E9F0E0010016ED2
:100610000FD0F70EAF6FF70EB06F11D0FF0EAF6FA8
:10062000FF0EB06F0CD0FF0EAF6FF70EB06F07D09C
:100630000150DF0AEEE00150BF0AF0E0F4D7B36BDF
:10064000B46BB56BB66BB76BAFC0B8F085DE010E9F
:10065000B36FB46BB56BB66BB76BAFC0B8F07CDE85
:10066000020EB36FB46BB56BB66BB76BB0C0B8F0BE
:1006700073DE030EB36FB46BB56BB66BB76BB0C004
:10068000B8F06ADE040EB36FB46BB56BB66BB76BC4
:10069000B0C0B8F061DE050EB36FB46BB56BB66B6E
:1006A000B76BB0C0B8F058DEB36BFF0EB46F30DD7F
:0206B000120036
:1006B2000001AF6BB06BB16BB26BFF0E286E276A95
:1006C200100EAA5D05E3010EAB6F100EAA5F01D0FA
:1006D200AB6BAAC0B0F0B037B091B037B091B037C1
:1006E200B091B037B091AFC0B3F0B0C0B4F0ABC00E
:1006F200B5F0CBDDA9C0B3F060DD0001B16BB26B28
:10070200AE6BAE51100A36E0000EB36F010EB46F3D
:10071200000EB56F010EB66F63DDAC6BAD6BAD5104
:10072200010A02E1000EAC1923E0000EAC25E96ECD
:10073200010EAD21EA6EEECF8CFF828A8292030E09
:100742000D6E0D2EFED78282030E0D6E0D2EFED77C
:10075200B14BB22BB2510F0A02E1FF0EB119D8A46C
:10076200829A030E0D6E0D2EFED7AC4BAD2BD7D752
:0C077200AE2BC7D7A9C0B3F00DDD1200FC
:10077E000001965305E1010EB36F000EB46FF9DC64
:10078E0097C000F098C001F099C002F09AC003F033
:10079E006D0E046E4E0E056EC60E066E410E076E83
:1007AE0048DE390E0024056E300E0120066E000E56
:1007BE000220076E000E0320086E07C000F008C06E
:1007CE0001F0000E08BEFF0E026E036EFF0E001645
:1007DE007F0E0116000E0216031600C097F001C020
:0C07EE0098F002C099F003C09AF01200CD
:1007FA00010E0001D46FD56BC580310E0D6E0D2E22
:10080A00FED700000000CF51010A03E1A20EC96E13
:10081A0002D0A00EC96E310E0D6E0D2EFED700004D
:10082A000000C5BC38D0CEC0C9FF310E0D6E0D2EEA
:10083A00FED700000000C5BC2CD0CDC0C9FF310EC8
:10084A000D6E0D2EFED700000000C5BC20D0000E94
:10085A00D31902E1000ED21919E0D451010A16E1A6
:10086A00D551D025E96E000ED121EA6EEECFC9FF2F
:10087A00010ED25F000ED35BD52B310E0D6E0D2EFD
:10088A00FED700000000C5BCD46BE1D701D0D46B01
:10089A0001D0D46B01D0D46BC584310E0D6E0D2EF0
:0C08AA00FED700000000D4C000F01200D7
:1008B6000001D06BD16BD26BD36BCFA749D0CDC023
:1008C600E9FFCEC0EAFFEECF02F0050E006E02C0D1
:1008D600D0F0000ED16FD26FD36F005004E0D0334A
:1008E600D09FFF0FFBD7D26BD36BD0C0D1F0D06BAC
:1008F60002C000F0003600900036009000360090EE
:10090600000ED26FD36F0050D013000ED113000E1D
:10091600D1BFFF0ED26FD36F000ED26FD36FCD4B08
:10092600CE2BCDC0E9FFCEC0EAFFEECF02F0050E1A
:10093600016E02C000F0015004E00032009EFF0F7D
:10094600FBD70050D013000ED113D213D31372D09D
:10095600CDC0E9FFCEC0EAFFEECF01F0050E006E76
:1009660001C004F0005004E004360490FF0FFBD7EA
:10097600CDC0E9FFCEC0EAFFEECF01F0030E006E58
:1009860001C0D0F0000ED16FD26FD36F005004E0DB
:10099600D033D09FFF0FFBD7D26BD36BD0C0D1F033
:1009A600D06B000ED26FD36FCD4BCE2BCDC0E9FFEF
:1009B600CEC0EAFFEECF00F0030E0014036EE00E89
:1009C6000014026E02C000F00032009E0032009E4B
:1009D6000032009E03500012045000120050D01343
:1009E600000ED113D213D313D2C0D3F0D1C0D2F09C
:1009F600D0C0D1F0D06BCD4BCE2BCDC0D9FFCEC061
:100A0600DAFFDE50D013000ED113D213D313D2C0A7
:100A1600D3F0D1C0D2F0D0C0D1F0D06BCD4BCE2B1D
:100A2600CDC0D9FFCEC0DAFFDE50D013000ED113F1
:100A3600D213D313D0C000F0D1C001F0D2C002F05F
:060A4600D3C003F0120012
:100A4C00A6A202D00000FCD7A69CCDC0A9FFCEC0A8
:100A5C00A8FFA69EA684F2CF00F0F29E550EA76EBC
:100A6C00AA0EA76EA68200BE02D0F29E01D0F28E14
:040A7C00A69412002A
:100A8000C0C002F0C1C003F086D0010E0001C02535
:100A9000006E000EC121016E00C0E9FF01C0EAFF37
:100AA000EECFBEFF050EC225E16E000EC321E26E41
:100AB00000C0E9FF01C0EAFFEECFE6FF90D00001E1
:100AC000010EC025E96E000EC121EA6EEECF04F0E2
:100AD000C2C0E1FFC3C0E2FF010EE66E04AE09D062
:100AE000010EC225E16E000EC321E26E010EE66E1C
:100AF00007D0010EC225E16E000EC321E26EE66A48
:100B0000020EC225E16E000EC321E26E1F0E041418
:100B1000006E00C0E6FF63D00001030EC225E16E47
:100B2000000EC321E26E010EC025E96E000EC12148
:100B3000EA6EEECFE6FF040EC225E16E000EC32181
:100B4000E26E020EC025E96E000EC121EA6EEECF04
:100B5000E6FF9D8044D00001060EC225E16E000E26
:100B6000C321E26E010EC025E96E000EC121EA6EBE
:100B7000EECFE6FF34D00001070EC225E16E000E75
:100B8000C321E26E010EC025E96E000EC121EA6E9E
:100B9000EECFE6FF24D002C0E9FF03C0EAFFEE502B
:100BA000000AD8B472D702C0E9FF03C0EAFFEE50D2
:100BB000010A85E002C0E9FF03C0EAFFEE50020A25
:100BC000ABE002C0E9FF03C0EAFFEE50050AC3E054
:100BD00002C0E9FF03C0EAFFEE50060ACCE01200B3
:100BE0009CD0310EB16E0001C66BC651080A14E0EC
:100BF000C6C000F0000E016E6A0E0024E16E000E09
:100C00000120E26EC651C425E96E000EC521EA6ED0
:100C1000EECFE6FFC62BE9D7B9D0C66BC651080A9E
:100C200016E0080EC625006E016A000E01226A0E4B
:100C30000024E16E000E0120E26EC651C425E96E6B
:100C4000000EC521EA6EEECFE6FFC62BE7D79ED099
:100C5000C66BC651080A16E0100EC625006E016A62
:100C6000000E01226A0E0024E16E000E0120E26EE9
:100C7000C651C425E96E000EC521EA6EEECFE6FF2F
:100C8000C62BE7D783D0C66BC651080A16E0180EEC
:100C9000C625006E016A000E01226A0E0024E16E74
:100CA000000E0120E26EC651C425E96E000EC5217A
:100CB000EA6EEECFE6FFC62BE7D7C66BC651200A19
:100CC0001AE0C6C0CDF06A0EE96E000EEA6EC6519B
:100CD000E926D8B0EA2AEECFCEF0B8DE820E0C6E4E
:100CE000DD0E0D6E0D2EFED70C2EFCD70000000081
:100CF0000001C62BE3D7010EB16E020E0B6E450E3E
:100D00000C6EA90E0D6E0D2EFED70C2EFCD70B2EE1
:100D1000FAD700000000FF0039D00001000E006E7D
:100D2000C31908E10050C21905E10050C11902E1E0
:100D3000C051500AD8B455D7000E006EC31908E14F
:100D40000050C21905E10050C11902E1C051510A19
:100D5000D8B463D7000E006EC31908E10050C21961
:100D600005E10050C11902E1C051520AD8B470D750
:100D7000000E006EC31908E10050C21905E10050D1
:0E0D8000C11902E1C051530AD8B47DD7120048
:100D8E00C0C0E9FFC1C0EAFFEE50550A30E1070EC0
:100D9E000001C025E96E000EC121EA6EEE50AA0ACE
:100DAE0026E1010E516E010EC025E96E000EC12125
:100DBE00EA6EEECF5FF0020EC26FC251070A0CE070
:100DCE00C251C025E96E000EC121EA6EEE50000A36
:100DDE00D8A4516AC22BF1D75150010A08E1010E75
:100DEE00526E5D6A5E6A596A4F6A310EB16E585024
:100DFE00010A21E1C0C0E9FFC1C0EAFFEE50AA0A14
:100E0E0016E10001070EC025E96E000EC121EA6E43
:100E1E00EE50550A0CE15950901907E15F50200F22
:100E2E00CD6F59C0CEF00BDE01D04F8201D04F8472
:100E3E00586A010EB16E5150010AD8A40DD152500C
:100E4E00010A02E1526A08D1C0C0D9FFC1C0DAFF5F
:100E5E00DE505926010E0001C025D96E000EC121AB
:100E6E00DA6EDE505926020EC025D96E000EC12153
:100E7E00DA6EDE505926030EC025D96E000EC12142
:100E8E00DA6EDE505926040EC025D96E000EC12131
:100E9E00DA6EDE505926050EC025D96E000EC12120
:100EAE00DA6EDE505926060EC025D96E000EC1210F
:100EBE00DA6EDE505926070EC025D96E000EC121FE
:100ECE00DA6EDE505926000EE16E010EE26E5D50B6
:100EDE00E126D8B0E22AC0C0E9FFC1C0EAFFEECFDA
:100EEE00E6FF5D2A000EE16E010EE26E5D50E12618
:100EFE00D8B0E22A010EC025E96E000EC121EA6EBD
:100F0E00EECFE6FF5D2A000EE16E010EE26E5D5041
:100F1E00E126D8B0E22A020EC025E96E000EC121EC
:100F2E00EA6EEECFE6FF5D2A000EE16E010EE26E76
:100F3E005D50E126D8B0E22A030EC025E96E000E00
:100F4E00C121EA6EEECFE6FF5D2A000EE16E010EC4
:100F5E00E26E5D50E126D8B0E22A040EC025E96E9D
:100F6E00000EC121EA6EEECFE6FF5D2A000EE16EA5
:100F7E00010EE26E5D50E126D8B0E22A050EC025C4
:100F8E00E96E000EC121EA6EEECFE6FF5D2A000E7D
:100F9E00E16E010EE26E5D50E126D8B0E22A060E39
:100FAE00C025E96E000EC121EA6EEECFE6FF5D2A86
:100FBE00000EE16E010EE26E5D50E126D8B0E22A1F
:100FCE00070EC025E96E000EC121EA6EEECFE6FFD8
:100FDE005D2A5D50000A3AE1100E5F5C12E3010ECD
:100FEE005A6E5B6A5C6A100E5F5C5C6E5C365C907F
:100FFE005C365C905C365C905C365C905E505C2639
:10100E000FD05A6A5B6A5C6A5FC05CF05C365C90BB
:10101E005C365C905C365C905C365C905E505C2618
:10102E0000015BC0CDF05CC0CEF05AC0CFF0000E18
:10103E00D06F010ED16F000ED26F010ED36FFDEC8B
:10104E0003F00050000AD8B44F805E2A5E50100A9A
:0A105E0003E1516A010E586E120002
:10106800C6C0E1FFC7C0E2FFE66A60AE2CD0F10E51
:101078006F16FF0E0001C96FA49074AE0AD0C6C0E7
:10108800E9FFC7C0EAFFC6C0E1FFC7C0E2FFE686C6
:10109800749E60A417D0070E6014006EC6C0E9FFE6
:1010A800C7C0EAFFC6C0E1FFC7C0E2FF0050EE12AA
:1010B800C6C0E9FFC7C0EAFFC6C0E1FFC7C0E2FF7C
:1010C800010EEE1637D00F0150AF32D0F10E6F1669
:1010D8000A0E6F120001C96BA49274AC0AD0C6C084
:1010E800E9FFC7C0EAFFC6C0E1FFC7C0E2FFE68666
:1010F800749C070E0F015015006EC6C0E9FFC7C0EB
:10110800EAFFC6C0E1FFC7C0E2FF0050EE12C6C04A
:10111800E9FFC7C0EAFF020EEE5C09E2C6C0E9FFBC
:10112800C7C0EAFFC6C0E1FFC7C0E2FFE68E02D033
:10113800006A7AD00F0E6514006E00C0CAF0C4C0F1
:10114800E1FFC5C0E2FF00C0E6FF65AC09D0C6C03C
:10115800E9FFC7C0EAFFC6C0E1FFC7C0E2FFE68CEF
:1011680062A61FD0C6C0E9FFC7C0EAFFC6C0E1FF3C
:10117800C7C0E2FFE68A610E0001CD6F0F0ECE6F89
:10118800F70ECF6F5BEC04F0C0C0E1FFC1C0E2FF17
:1011980000C0E6FF01C0E6FF02C0E6FF03C0E6FFAD
:1011A80015D00001610ECD6F0F0ECE6FFF0ECF6F01
:1011B8005BEC04F0C0C0E1FFC1C0E2FF00C0E6FF85
:1011C80001C0E6FF02C0E6FF03C0E6FFC86B660E7B
:1011D800CB6F0F0ECC6FCA51C85D10E2C851C22543
:1011E800E16E000EC321E26EC851CB25E96E000EF8
:1011F800CC21EA6EEECFE6FFC82BEDD7F10E6F16C5
:10120800A4AE0AD0C6C0E9FFC7C0EAFFC6C0E1FF66
:10121800C7C0E2FFE688A49EC95302E0609E02D0E0
:0A1228000F01509FFF0E006E120030
:10123200BFEC03F000C0A7F001C0A8F0A851A72599
:10124200026EA551A65D006E016A000E015A010EE2
:101252000024046E000E0120056E02C000F0000E94
:10126200016E6DEC02F008C000F009C001F000014F
:06127200A5510026120048
:10127800A69CA5C0A9FFA69EA680A8CF00F0120034
:10128800FC0E00019C6F010EA96F040EAA6F080ED8
:10129800AB6F080EAC6F080EAD6FB90EAE6FD0EC29
:1012A80002F0800EB36FFF0EB46F88EC00F0B36BE2
:1012B800FC0EB46FFF0EB56FFF0EB66FFF0EB76F63
:1012C800FF0EB86F49EC02F0B36B420EB46F000E1C
:1012D800B56FB66FB76FFF0EB86FACEC01F0010ECB
:1012E800B36FFC0EB46FFF0EB56FFF0EB66FFF0E37
:1012F800B76FFF0EB86F49EC02F0020EB36F500ED5
:10130800B46F000EB56FB66FB76FFF0EB86FACEC69
:0E13180001F0B36BFF0EB46F88EC00F0120012
:10132600200E0001A65D1BE2BD6A8284A0922CC03D
:10133600A7F02BC0A8F0A5C0A9F0A6C0AAF059EC4A
:1013460003F0420E0D6E0D2EFED70000A7C02CF046
:10135600A8C02BF0A0821C0EBD6E66C0BEFF120098
:101366008A0E0001C06F000EC16F8E0EC26F000E96
:10137600C36F690EC46F000EC56F600EC66F000E98
:10138600C76F6FDE0050000AD8B462D0000E006E40
:1013960000018D1908E100508C1905E100508B19E8
:1013A60002E18A51420A05E18E0EC06F000EC16F3E
:1013B600EBDC000E006E00018D1908E100508C195F
:1013C60005E100508B1902E18A51410A0AE18E0EAD
:1013D600C06F000EC16F610EC26F000EC36F40EC8E
:1013E60005F0000E006E00018D1908E100508C1901
:1013F60005E100508B1902E18A51400A02E18FC0D3
:101406004EF0FC0E8A15016EFF0E8B15026EFF0E56
:101416008C15036EFF0E8D15046E000E006E0418FB
:1014260008E10050031805E10050021802E10150DE
:10143600500A0EE18AC0C0F08BC0C1F08CC0C2F069
:101446008DC0C3F08E0EC46F000EC56FF0EC05F0B4
:02145600120082
:101458005750010A69E19DB066D00001A56B4F0E97
:101468005624F66E1B0EF76E000EF722000EF86E6D
:10147800000EF8220900F5CFA6F051DF420E0D6EDE
:101488000D2EFED70000010EA56F4F0E5624F66EE6
:101498001B0EF76E000EF722000EF86E000EF822F3
:1014A8000900F5CF00F00050010FA66F38DF420E9B
:1014B8000D6E0D2EFED70000070EA225E16E000E60
:1014C800A321E26E470E5624F66E1B0EF76E000E31
:1014D800F722000EF86E000EF8220900F5CF00F092
:1014E80000C0E6FFA0C0E1FFA1C0E2FFE66A010E6E
:1014F800A56F030EA66F99DE030EA225E16E000EFE
:10150800A321E26E00C0E6FF040EA225E16E000EE4
:10151800A321E26E190EE66E9D80576A562A565030
:10152800080AD8B4566A1ED0502A5050C80A1AE180
:101538000001506A040EA56F060EA66F76DE030E34
:10154800A225E16E000EA321E26E00C0E6FF040EA4
:10155800A225E16E000EA321E26E190EE66E9D80B3
:06156800010E576E120097
:10156E00800EC76E280EC66EC56A090EC86E9D9691
:02157E00120059
:101580000001A06BA051080A13E03D0EA16F000EF0
:10159000A26FA051A127D8B0A22BA0C0A5F06CDEED
:1015A000A1C0E1FFA2C0E2FF00C0E6FFA02BEAD786
:1015B000A06BA051080A17E0080EA025006E016A72
:1015C000000E01223D0E0024A16F000E0120A26F2B
:1015D00000C0A5F051DEA1C0E1FFA2C0E2FF00C043
:1015E000E6FFA02BE6D7A06BA051080A14E02D0E51
:1015F000A16F000EA26FA051A127D8B0A22BA051BD
:10160000100FA56F39DEA1C0E1FFA2C0E2FF00C04C
:10161000E6FFA02BE9D7A06BA051080A18E0080E3E
:10162000A025006E016A000E01222D0E0024A16F7C
:10163000000E0120A26FA051180FA56F1DDEA1C0E2
:10164000E1FFA2C0E2FF00C0E6FFA02BE5D7120039
:10165000060E0001A025E96E000EA121EA6EEE50F3
:10166000000A10E15350010A0CE11C0EBD6E050E7C
:10167000A025E96E000EA121EA6EEECFBEFF536AEF
:10168000556A1ED0010E536E5550010F006E00C0FA
:1016900055F0060EA025D96E000EA121DA6E555028
:1016A000DE180EE1556A5450000A05E1BD6A8284D5
:1016B000010E546E05D01C0EBD6E66C0BEFF546A8E
:0216C000120016
:1016C200FB0ECF6E1E0ECE6E2A2A2A50000165191D
:1016D200D8A485D02A6A71D02950010A06E17F0E6A
:1016E2002B6E7E0E2C6E296A07D02B062B50000A19
:1016F20003E1010E296E9D9072D02950010A05E185
:101702002B6A7E0E2C6E296A07D02B2A2B507F0A59
:1017120003E1010E296E9D9062D02950010A05E174
:101722007F0E2B6E2C6A296A0CD02B507F0A02E1A5
:101732002B6A01D02C2A2C507E0A03E1010E296E5D
:101742009D904DD02950010A05E12B6A7E0E2C6E28
:10175200296A0FD02B507F0A03E1010E296E9D905A
:101762002C50000A02E17F0E2B6E2B50000AD8B4D7
:101772002C0635D02950010A06E1400E2B6E3F0E91
:101782002C6E296A08D02B062C2A2B50000A03E162
:10179200010E296E9D9023D02950010A05E12B6A82
:1017A2007E0E2C6E296A08D02B2A2C062B50400A5A
:1017B20003E1010E296E9D9012D06451010A8CE062
:1017C2006451040A9AE06451020AA7E06451050ACE
:1017D200B9E06451030ACEE06451060ADDE012006A
:1017E200FF0EB36EE20EB26E010EB16EA282A08245
:0217F2001200E3
:0217F4001200E1
:1017F6000001A207A2510F0802E20E0EA26FA56B0E
:101806003D0EE96E000EEA6EA251E926D8B0EA2A2C
:10181600EECFA6F085DD010EA56F3D0EE96E000E3A
:10182600EA6EA251E926D8B0EA2AEE50010FA66F59
:1018360077DD070EA325E16E000EA421E26E2D0EC4
:10184600E96E000EEA6EA251E926D8B0EA2AEECF7A
:10185600E6FFA0C0E1FFA1C0E2FFE66A010EA56FA8
:10186600030EA66FE3DC030EA325E16E000EA42192
:10187600E26E00C0E6FF040EA325E16E000EA42171
:0A188600E26E190EE66E9D8012005E
:10189000FB0ECF6E1E0ECE6E310ECD6E9F909D90C4
:0218A000120034
:0C18A2000001616B666B676B686B1200E5
:0218AE00120026
:1018B0000900F5CFE6FF0006FBE10106F9E11200A1
:1018C000F00E926E060EC16E880E936E180E946E18
:1018D000070EB46EFF0E956E896A8B6A8A6A8C6AEF
:1018E0008A80A69EA69C828A829C81988282818C14
:1018F000210E0D6E0D2EFED7819C806A8290829EF5
:10190000FF0ECB6E060ECA6E1C0EBD6EBE6AD08E6A
:021910001200C3
:0619120000019B6B1200B6
:0C191800B7DCA592A590A382A38012006A
:1019240000C026F0FF0EB36EE20EB26E2B50275CA1
:1019340009E327502C5C06E3829C828E8292829E6D
:10194400828205D0828C828E8292829E8282272A13
:1019540027507F0806E28280276A282A28C080FF51
:0A1964008290A19226C000F011004D
:10196E00ACEC0DF000019D6B9E6B9F6BA2DFF8DD62
:10197E001A0E0B6E5E0E0C6E6E0E0D6E0D2EFED7CB
:10198E000C2EFCD70B2EFAD70000BFDF23DF79DF3A
:10199E00B9DF29DF85DF7EDFECDDF28CF28E61515F
:1019AE00010A06E162C0A5F063C0A6F0B5DC616B6A
:1019BE00610EA06F000EA16F44DE4EC09FF04E5020
:1019CE00000A0CE19FC09EF09D0EA06F000EA16F4D
:1019DE00610EA26F000EA36F38DD13D000019F5170
:1019EE009E190FE09DB00DD09FC09EF09D0EA06F72
:1019FE00000EA16F9FC0A2F0610EA36F000EA46F28
:101A0E00F3DE00016851000A07E09D2B9D51681915
:101A1E0002E19D6B817801D09D6B4D064D50000A01
:101A2E000BE14F50000A03E1010E4D6E02D0190E6C
:101A3E004D6E010E4D6E8170820E0C6EDD0E0D6EB2
:101A4E000D2EFED70C2EFCD700000000A8D7FFD716
:101A5E0000C01FF001C01EF002C01DF003C01CF03C
:101A6E0004C01BF00BC01AF00CC019F00DC018F01A
:101A7E00D9CF24F0DACF25F0E1CF22F0E2CF23F058
:101A8E00E9CF20F0EACF21F0156ED8CF16F0E0CFD7
:101A9E0017F0A3A005D0A4A003D05EDCA4900DD0B7
:101AAE00A3A205D0A4A203D057DCA49206D09DA079
:101ABE0004D09EA002D0FEDD9E901750E06E165010
:101ACE00D86E153A15381FC000F01EC001F01DC0AB
:101ADE0002F01CC003F01BC004F01AC00BF019C0BA
:101AEE000CF018C00DF020C0E9FF21C0EAFF22C0A3
:101AFE00E1FF23C0E2FF24C0D9FF25C0DAFF1000AA
:101B580010EE27F0390E006E010E016E0E0EF66EB5
:0E1B68001B0EF76E000EF86E58EC0CF012001B
:011B0E0000D6
:011B0F00FFD6
:011B100001D3
:011B110000D3
:011B12007F53
:011B130000D1
:101B1400051E0A1E1E081E0F0A0000000000000019
:101B240008060C060602060A040000000000000075
:011B340001AF
:011B350001AE
:011B360000AE
:011B370000AD
:011B380000AC
:011B390000AB
:031B3A00000000A8
:011B3D0000A7
:011B3E0001A5
:011B3F0000A5
:011B400000A4
:011B410000A3
:021B42000000A1
:011B440000A0
:011B4500009F
:011B4600009E
:081B4700190A1908190A190511
:081B4F00060C0602060406085C
:020000040030CA
:0D000100250F0EFFFF81FF0FC00FE00F4025
:0200000400F00A
:1000000008100C121402160A0400000000001C0064
:1000100005050A0A020810100A000000000004008A
:10002000FFFFFFFFFFFFFFFFFFFFFFFFFFFFFFFFE0
:10003000FFFFFFFFFFFFFFFFFFFFFFFFFFFFFFFFD0
:10004000FFFFFFFFFFFFFFFFFFFFFFFFFFFFFFFFC0
:10005000FFFFFFFFFFFFFFFFFFFFFFFFFFFFFFFFB0
:10006000FFFFFFFFFFFFFFFFFFFFFFFFFFFFFFFFA0
:10007000FFFFFFFFFFFFFFFFFFFFFFFFFFFFFFFF90
:10008000FFFFFFFFFFFFFFFFFFFFFFFFFFFFFFFF80
:10009000FFFFFFFFFFFFFFFFFFFFFFFFFFFFFFFF70
:1000A000FFFFFFFFFFFFFFFFFFFFFFFFFFFFFFFF60
:1000B000FFFFFFFFFFFFFFFFFFFFFFFFFFFFFFFF50
:1000C000FFFFFFFFFFFFFFFFFFFFFFFFFFFFFFFF40
:1000D000FFFFFFFFFFFFFFFFFFFFFFFFFFFFFFFF30
:1000E000FFFFFFFFFFFFFFFFFFFFFFFFFFFFFFFF20
:1000F000FFFFFFFFFFFFFFFFFFFFFFFFFFFFFFFF10
:00000001FF

