:020000040800F2
:10000000005000208D410008FD3F0008FF3F000820
:1000100001400008034000080540000800000000FF
:100020000000000000000000000000000740000881
:1000300009400008000000000B4000080D400008C7
:10004000D5410008D5410008D5410008D541000838
:10005000D5410008D5410008D5410008D541000828
:10006000D5410008D5410008D5410008D541000818
:1000700015400008D5410008D5410008D5410008C9
:10008000D5410008D5410008D5410008D5410008F8
:100090002540000835400008D5410008D54100083A
:1000A000D541000845400008D5410008D541000869
:1000B00055400008D5410008D5410008D541000849
:1000C000D5410008D5410008D5410008D5410008B8
:1000D000D5410008D5410008D5410008D5410008A8
:1000E000D5410008D5410008D541000800000000B6
:1000F0000000000000000000000000000000000000
:0C01000000000000000000005FF808F1A3
:10010C0010B5054C237833B9044B13B10448AFF345
:10011C0000800123237010BD980000200000000017
:10012C005452000808B5034B1BB103490348AFF305
:10013C00008008BD000000009C0000205452000804
:10014C0010B504460E4B18784FF47A73B3FBF0F3EA
:10015C000C4A1068B0FBF3F000F0EAFB68B90F2C06
:10016C0001D901200AE0002221464FF0FF3000F0B7
:10017C008BFB034B5C60002000E0012010BD00BF36
:10018C00000000202C00002008B5074A136843F03B
:10019C0010031360032000F065FB0020FFF7D0FF75
:1001AC0003F0FAFD002008BD00200240034A11684C
:1001BC00034B1B780B441360704700BF08010020F1
:1001CC0000000020014B1868704700BF0801002098
:1001DC0038B50446FFF7F6FF0546B4F1FF3F02D0F1
:1001EC00044B1B781C44FFF7EDFF401BA042FAD3D5
:1001FC0038BD00BF00000020002800F0A18038B5F9
:10020C00044690F82030D3B12268136843F0010300
:10021C001360FFF7D7FF054623685A6812F0010FE9
:10022C0010D1FFF7CFFF401B0A28F5D9636A43F4BE
:10023C0000336362052384F82030012038BD03F0BD
:10024C00CDFDE1E71A6822F002021A60FFF7BAFF4F
:10025C00054623685A6812F0020F0DD0FFF7B2FF63
:10026C00401B0A28F5D9636A43F400336362052303
:10027C0084F820300120E1E7227E012A3DD01A6863
:10028C0022F080021A60637E012B3BD02268136837
:10029C0023F040031360A37E012B39D0226813682E
:1002AC0023F020031360E37E012B37D02268136800
:1002BC0043F010031360237F012B35D022681368A1
:1002CC0023F008031360637F012B33D0226813687B
:1002DC0023F004031360A368E268134322691343F9
:1002EC00626913436268013A21681343CB610020B1
:1002FC006062012384F82030A0E71A6842F0800283
:10030C001A60C0E72268136843F040031360C2E729
:10031C002268136843F020031360C4E72268136853
:10032C0023F010031360C6E72268136843F0080338
:10033C001360C8E72268136843F004031360CAE72C
:10034C0001207047026890F82030013BDBB2012B92
:10035C0005D9436A43F4802343620120704770B48B
:10036C00D2F8003243F00103C2F800324B6903F0BB
:10037C001F03012000FA03F3D2F81C02DC4320EA2D
:10038C000300C2F81C02C869A8B9D2F80C022040BC
:10039C00C2F80C02CE688D88486945EA064548309B
:1003AC0042F830508E680D88486945EA0645483059
:1003BC0002EBC0004560C869012819D0886970BB80
:1003CC00D2F804022040C2F80402086968BBD2F8D3
:1003DC0014020440C2F81442096A01292BD0D2F845
:1003EC00003223F00103C2F80032002070BC7047C9
:1003FC00D2F80C021843C2F80C020E688D884869BA
:10040C0045EA0645483042F830508E688D89486977
:10041C0045EA0645483002EBC0004560CEE7D2F80D
:10042C0004021843C2F80402CFE7D2F814021843AE
:10043C00C2F81402D0E7D2F81C120B43C2F81C32DB
:10044C00CDE770B5044690F82050EDB2012D06D0E2
:10045C00436A43F4002343620125284670BD0223FE
:10046C0080F820300268136823F001031360FFF753
:10047C00A9FE064623685B6813F0010F0CD0FFF74A
:10048C00A1FE831B0A2BF5D9636A43F40033636224
:10049C00052384F82030E0E700256562DDE730B401
:1004AC0090F82040013CE4B2012C00F2918051B94B
:1004BC000468E46814F0030F10D1436A43F400138A
:1004CC004362012089E00468246914F0030F05D10C
:1004DC00436A43F40013436201207EE0056801F196
:1004EC001B0424012C5904F004049460002C61D1E9
:1004FC00056801F11B0424012C59640D1460056876
:10050C0001F11B0424012D5905F00205D560056885
:10051C0025446D6805F00F051561056825446D6867
:10052C00C5F30725956105682C446468240C546157
:10053C00026802EB0112D2F8B8211A70026802EBC1
:10054C000112D2F8B821C2F307225A70026802EBEA
:10055C000112D2F8B821C2F307429A70026802EB7A
:10056C000112D2F8B821120EDA70026802EB0112F5
:10057C00D2F8BC211A71026802EB0112D2F8BC212C
:10058C00C2F307225A71026802EB0112D2F8BC21A5
:10059C00C2F307429A71026802EB0112D2F8BC2135
:1005AC00120EDA7171B90268D36843F02003D3607C
:1005BC00002012E0056801F11B0424012C59E40809
:1005CC0054609CE70268136943F020031361EFE762
:1005DC00436A43F480234362012030BC704790F897
:1005EC002030013BDBB2012B05D9436A43F4802355
:1005FC00436201207047026853691943516100201E
:10060C007047704770477047704770477047704726
:10061C0070477047704770472DE9F84F05460368DF
:10062C005C69D3F804809F68D3F80CB0D3F810A0A1
:10063C00D3F8189014F001063BD017F0010616D031
:10064C0001229A6017F0020F08D117F0040F0CD199
:10065C0017F0080606D04FF4805608E0FFF7D1FFDC
:10066C00002604E0FFF7D0FF01E04FF4006617F41A
:10067C00807F0DD02B684FF480729A6017F4007F46
:10068C0040F0868017F4806F00F0868046F40056A8
:10069C0017F4803F0DD02B684FF480329A6017F41A
:1006AC00003F40F0838017F4802F00F0838046F4E5
:1006BC00004614F0080F07D01BF0100F04D046F4BE
:1006CC0000762B681022DA6014F0040F02D01BF0B5
:1006DC00080F79D114F0020F04D02B68DB6813F0EB
:1006EC00030F78D114F0400F07D01AF0100F04D07C
:1006FC0046F480662B6810221A6114F0200F02D089
:10070C001AF0080F6BD114F0100F04D02B681B6972
:10071C0013F0030F6AD114F4003F02D018F0100F3D
:10072C0068D114F4803F02D018F0080F69D114F48A
:10073C00004F7AD018F0040F74D014F4807F04D0DA
:10074C0019F0010F01D046F0010614F4007F04D01B
:10075C0019F0020F01D046F0020614F4806F04D099
:10076C0019F0040F01D046F0040614F4006F59D0B0
:10077C0019F0700956D0B9F1400F65D058D8B9F1BD
:10078C00200F5ED0B9F1300F42D146F0200644E084
:10079C002846FFF737FF7BE717F4006F02D046F4CB
:1007AC00804675E72846FFF730FF71E72846FFF7CC
:1007BC002AFF7EE717F4002F02D046F4803678E744
:1007CC002846FFF723FF74E72B680822DA602846D7
:1007DC00FFF71DFF7EE7284602F0C2FF82E72B6879
:1007EC0008221A612846FFF713FF8CE7284602F00F
:1007FC00C6FF90E72B6810225A602846FFF709FFC6
:10080C008FE72B6808225A602846FFF703FF8EE714
:10081C00B9F1100F01D146F008062A68936923F04C
:10082C00700393612B6804225A609EB9BDE8F88F5F
:10083C00B9F1500F0BD0B9F1600FEED146F48076C0
:10084C00EBE746F01006E8E746F04006E5E746F031
:10085C008006E2E76B6A1E436E622846FFF7DBFEFA
:10086C00E4E70000074AD36823F4E0631B041B0C85
:10087C00000200F4E060034343F0BF6343F4003331
:10088C00D360704700ED00E030B4174BDB68C3F366
:10089C000223C3F10704042C28BF04241D1D062DBC
:1008AC0018D9033B4FF0FF3505FA04F421EA040193
:1008BC00994005FA03F322EA0303194300280BDBE2
:1008CC000901C9B200F1604000F5614080F80013E5
:1008DC0030BC70470023E5E700F00F000901C9B2F6
:1008EC00024B1954F4E700BF00ED00E014ED00E0FA
:1008FC00002807DB00F01F02400901239340024A45
:10090C0042F82030704700BF00E100E0BFF34F8F8A
:10091C000549CA6802F4E062044B1343CB60BFF391
:10092C004F8F00BFFDE700BF00ED00E00400FA05AB
:10093C000138B0F1807F0AD2064B5860064AF0218C
:10094C0082F823100020986007221A60704701205B
:10095C00704700BF10E000E000ED00E070B4066CE2
:10096C00C56B0124B4406C60046863604368102B51
:10097C0005D0036899600368DA6070BC704703683F
:10098C009A600368D960F8E760B310B40246016856
:10099C00154B0B441548A0FB03031B099B00136468
:1009AC00134BD363022382F82130086820F47F5064
:1009BC0020F03000536894682343D46823431469AF
:1009CC0023435469234394692343D4692343034346
:1009DC000B6000209063012382F8213082F8200004
:1009EC0010BC704701207047F8FFFDBFCDCCCCCCBC
:1009FC000000024038B5044690F82000012831D0A0
:100A0C00012084F8200094F82100012804D0002350
:100A1C0084F82030022038BD022084F82100002008
:100A2C00A0632568286820F0010028602046FFF7A5
:100A3C0095FFE36A5BB12268136843F00E03136001
:100A4C002268136843F0010313600020E3E7226877
:100A5C00136823F0040313602268136843F00A033D
:100A6C001360EDE70220D6E738B5C36B1A6804684B
:100A7C002568016C04238B40134235D015F0040F0C
:100A8C0032D0236813F0200F03D1236823F0040322
:100A9C0023600368434A934214D01432934218D013
:100AAC001432934217D01432934217D0143293421B
:100ABC0017D01432934202D04FF0806203E04FF40F
:100ACC00800200E00422384B5A60C36A03B1984795
:100ADC0038BD4022F7E74FF48062F4E74FF48042D0
:100AEC00F1E74FF48022EEE702238B4013423CD017
:100AFC0015F0020F39D0236813F0200F06D12368AC
:100B0C0023F00A032360012380F821300368254A6F
:100B1C00934214D0143293421CD0143293421BD003
:100B2C00143293421BD0143293421BD01432934292
:100B3C0002D04FF0007203E04FF4001200E00222EA
:100B4C00194B5A60002380F82030836A002BBFD0E9
:100B5C009847BDE72022F3E74FF40072F0E74FF41B
:100B6C000052EDE74FF40032EAE7082303FA01F1F3
:100B7C001142ADD015F0080FAAD0236823F00E0354
:100B8C002360026CC16B012303FA02F24A60836397
:100B9C0080F82130002380F82030036B002B97D095
:100BAC00984795E70800024000000240034690F881
:100BBC00200001281AD093F82100012804D001202C
:100BCC00002283F8202070470329F9D8DFE801F0D0
:100BDC000205080B9A620846F2E7DA620020EFE79A
:100BEC001A630020ECE75A630020E9E70220704703
:100BFC00044B0022DA61044A136943F001031361C8
:100C0C00018070471001002000200240194BDB6866
:100C1C0013F0100305D0184AD36943F00203D361D3
:100C2C001023144AD26812F0040F06D01249CA6974
:100C3C0042F00102CA6143F004030E4AD26912F079
:100C4C00010F09D00C49CA6942F00402CA61094972
:100C5C00CA6922F00102CA6140F20112934202D029
:100C6C00044AD3607047034AD36923F00103D3616C
:100C7C00704700BF00200240100100200A4B1B6986
:100C8C0013F0800F0BD0084B084A5A6002F18832DF
:100C9C005A601B6913F0800F03D1002070470020AD
:100CAC0070470120704700BF0020024023016745B8
:100CBC00034A136943F0800313610020704700BF9F
:100CCC000020024038B50446FFF77CFA0546164B67
:100CDC00DB6813F0010F0AD0B4F1FF3FF7D024B159
:100CEC00FFF770FA401BA042F1D903201BE00E4B1A
:100CFC00DB6813F0200F02D00B4B2022DA600A4B7A
:100D0C00DB6813F0100F0BD1074BDB6913F0010FED
:100D1C0006D1054BDB6813F0040F01D1002002E073
:100D2C00FFF774FF012038BD002002402DE9F84385
:100D3C001E46234B1B7E012B40D004460F4690468B
:100D4C001F4B01221A764CF25030FFF7BBFF0346C3
:100D5C0070BB012C29D0022C24D04FF004091C4666
:100D6C004C4525D22101C1F12002A1F1200328FA22
:100D7C0001F106FA02F2114326FA03F3194389B280
:100D8C0007EB4400FFF734FF4CF25030FFF79AFFAB
:100D9C000C4B1D6925F001051D61034640B901345A
:100DAC00E4B2DDE74FF00209D9E74FF00109D6E7CD
:100DBC00034A002111761846BDE8F8830223FAE7AE
:100DCC001001002000200240F0B482B000252C4617
:100DDC00A3E07F4FBB4210D007D97E4FBB420CD053
:100DEC0007F58037BB4208D013E0A7F58017BB424C
:100DFC0003D007F57027BB4207D18B68002B58D066
:100E0C00012B51D04261082503E0A7F58017BB42A6
:100E1C00F3D0FF2E4FD88446FF2E4FD8A200DCF81B
:100E2C0000300F27974023EA070305FA02F2134319
:100E3C00CCF800304B6813F0805F6DD0664B9A692C
:100E4C0042F001029A619B6903F001030193019B3B
:100E5C00A208971C614B53F8273004F00307BF001E
:100E6C004FF00F0C0CFA07FC23EA0C0C5C4B98426D
:100E7C002AD003F58063984200F08A8003F58063E2
:100E8C00984200F0878003F5806398421AD00423BF
:100E9C001BE0CD68BDE7CD680435BAE7CD680835F1
:100EAC00B7E7CD680C35B4E702610825B1E700253A
:100EBC00AFE70425ADE700F1040CADE7A4F108029F
:100ECC009200ACE7032300E00023BB4043EA0C0391
:100EDC000232424F47F822304B6813F4803F5BD00C
:100EEC00404A1368334313604B6813F4003F59D0E6
:100EFC003C4A5368334353604B6813F4801F57D0FC
:100F0C00384A9368334393604B6813F4001F55D0F1
:100F1C00344AD3681E43D66001340B6833FA04F2AA
:100F2C0052D00122A24003EA020632EA0303F3D1B3
:100F3C004B68122B3FF64DAF122B3FF66AAF01A751
:100F4C0057F823F0070E00089F0E0008A90E0008A2
:100F5C00BB0E00081F0E00081F0E00081F0E000815
:100F6C001F0E00081F0E00081F0E00081F0E0008A1
:100F7C001F0E00081F0E00081F0E00081F0E000891
:100F8C001F0E00081F0E0008A30E0008AF0E00086D
:100F9C0001239AE7022398E7124A136823EA06030F
:100FAC001360A1E70F4A536823EA06035360A3E7D3
:100FBC000C4A936823EA06039360A5E7094AD368B1
:100FCC0023EA0606D660A7E702B0F0BC704700BF64
:100FDC0000002210000031100010024000000140FF
:100FEC0000080140000401400AB101617047090486
:100FFC0001617047C36801EA030221EA030141EA77
:10100C0002410161704703685A6912F4806F01D183
:10101C00002070476FF480625A6100230363202222
:10102C0080F83D2080F83E30026C42F004020264ED
:10103C0080F83C30012070472DE9F04107460D4601
:10104C0090461E4622E0FFF7BDF8069BC01AB04240
:10105C0000D8DEB900233B63202287F83D2087F8B7
:10106C003E303A6C42F020023A6487F83C30012062
:10107C001AE03B689C6925EA0404A4B2B4FA84F42F
:10108C006409A0450FD1B6F1FF3FDCD1C5F307438E
:10109C00012BEED13B685C6925EA0404A4B2B4FAD6
:1010AC0084F46409EDE70020BDE8F0812DE9F041FE
:1010BC0005460E46174698463DE01A6842F4007203
:1010CC001A602B686FF480625A6100232B63202214
:1010DC0085F83D2085F83E302A6C42F004022A64E3
:1010EC0085F83C30012034E0FFF76CF8A0EB0800E9
:1010FC00B84200D8FFB900232B63202285F83D208D
:10110C0085F83E302A6C42F020022A6485F83C3087
:10111C0001201EE02B689C6926EA0404A4B2003C62
:10112C0018BF0124A4B12B685A6912F4806FC4D182
:10113C00B7F1FF3FD8D1C6F30743012BEAD12B6897
:10114C005C6926EA0404A4B2003C18BF0124E9E758
:10115C000020BDE8F0810000F0B583B004460D46D8
:10116C0016461F46C36A082B0DD0012B0BD013F566
:10117C00803F08D0036B122B0AD10268136843F42A
:10118C008073136004E02268136843F48073136067
:10119C000097334600224FF001112046FFF74CFF19
:1011AC0080B92369B3F5804F16D1236805F0FE058D
:1011BC001D613B46324613492046FFF777FFF8B9CD
:1011CC0003B0F0BD23681B6813F4807F02D04FF48A
:1011DC00007323640320F3E7EB11226803F006038A
:1011EC0043F0F00313613B46324607492046FFF7B4
:1011FC005DFF18B92368EDB21D61DAE70120DFE766
:10120C000120DDE702000100080001002DE9F0419A
:10121C0084B004460D4616461F46C26A01680B6828
:10122C0043F480630B60082A0DD0012A0BD012F511
:10123C00803F08D0036B112B0AD10268136843F46A
:10124C008073136004E02268136843F480731360A6
:10125C000097334600224FF001112046FFF7ECFEB9
:10126C0098B92369B3F5804F19D1236845F001056E
:10127C00EDB21D613B4632462A492046FFF716FF68
:10128C0000284CD104B0BDE8F08123681B6813F42E
:10129C00807F02D04FF4007323640320F2E74FEAFF
:1012AC00E51808F00608236848F0F0021A613B467E
:1012BC0032461D492046FFF7F9FE08B10120E1E74F
:1012CC002368EDB21D613B46324616492046FFF7B6
:1012DC00EDFE08B10120D5E700220392236859697D
:1012EC000391996903910399196841F4807119600C
:1012FC00009733464FF001112046FFF79DFE20B9B1
:10130C00226848F0F1031361B4E723681B6813F4F7
:10131C00807F02D04FF4007323640320B2E70120D6
:10132C00B0E700BF020001000800010070B50446E0
:10133C000D46164623685B6913F0800F1CD12046BE
:10134C00FFF761FED0B9B5F1FF3FF3D0FEF73AFFDE
:10135C00801BA84201D8002DECD10023236320224E
:10136C0084F83D2084F83E30226C42F02002226446
:10137C0084F83C30012000E0002070BD0120FCE727
:10138C002DE9F04385B004460D4691461F46DDF825
:10139C0030800D9E0368196841F4807119600096C5
:1013AC00434600224FF00111FFF746FE60B9236857
:1013BC0005F0FE051D613346424626492046FFF7DF
:1013CC0075FE68B1012008E023681B6813F4807F68
:1013DC0002D04FF400732364032005B0BDE8F08302
:1013EC000023039323685A6903929B690393039B1D
:1013FC00324641462046FFF799FF30B9012F0FD1F5
:10140C0023685FFA89F61E61E7E7236C042B01D091
:10141C000120E2E72268136843F400731360F7E7D6
:10142C0023684FEA19221A61324641462046FFF7DB
:10143C007DFF20B923685FFA89F61E61CDE7236C26
:10144C00042B01D00120C8E72268136843F4007311
:10145C001360F7E70200010070B504460D4616460E
:10146C0023685B6913F0040F1CD12046FFF7CBFDFA
:10147C00D0B9B5F1FF3FF3D0FEF7A4FE801BA84214
:10148C0001D8002DECD100232363202284F83D20C9
:10149C0084F83E30226C42F02002226484F83C3006
:1014AC00012000E0002070BD0120FCE770B505466E
:1014BC000C4616462B68596911F0400F29D1596911
:1014CC0011F0100F15D1FEF77DFE801BA04201D844
:1014DC00002CEFD100232B63202285F83D2085F8CA
:1014EC003E302A6C42F020022A6485F83C30012000
:1014FC0070BD6FF010025A6100232B63202285F817
:10150C003D2085F83E302A6C2A6485F83C30012059
:10151C00EEE70020ECE70000002800F0CC80F8B5E6
:10152C00044690F83D30002B77D0242384F83D30CE
:10153C002268136823F0010313602268136843F4D4
:10154C00004313602268136823F40043136000F017
:10155C00DFFE62685A4B9A4264D85A4B98428CBF51
:10156C0000230123002B40F0A880574DA5FB00352C
:10157C00AF0C2668716821F03F0141EA954171601A
:10158C0021680B6A23F03F0365684D4A95424FD89A
:10159C007A1C13430B622568E96921F44F4121F051
:1015AC00FF016368464A93424CD801385B00B0FB9C
:1015BC00F3F0013040F6FC73184278D0C0F30B0303
:1015CC000B43EB6121680B6823F0C003E269206ACE
:1015DC00024313430B6021688B6823F4034323F00D
:1015EC00FF032269E068024313438B602168CB68D8
:1015FC0023F0FF036269A06902431343CB602268A6
:10160C00136843F00103136000202064202384F846
:10161C003D30206384F83E00F8BD80F83C3002F089
:10162C0029FC82E7294B98428CBF0023012399E7C0
:10163C004FF4967202FB07F2254DA5FB025292095C
:10164C000132A6E7A268BAB9461E03EB4307B6FB04
:10165C00F7F60136C6F30B06B6FA86F6760946BBE4
:10166C00C2B9421E03EB4303B2FBF3F20132C2F3E5
:10167C000B0242F40043A3E7461E03EB830707EB80
:10168C008707B6FBF7F60136C6F30B06B6FA86F6F5
:10169C007609E4E7421E03EB830303EB8303B2FBFF
:1016AC00F3F20132C2F30B0242F4404388E7042305
:1016BC0086E7012384E7012070470120ACE700BFD7
:1016CC00A08601007F841E0083DE1B43FF083D00C3
:1016DC00D34D62102DE9F04385B004460F46914678
:1016EC0098460C9EFEF76EFD054694F83D00C0B280
:1016FC00202804D00227384605B0BDE8F0830095B9
:10170C00192301224F492046FFF796FC002840F090
:10171C00928094F83C30012B00F08F80012384F8E8
:10172C003C3023681A6812F0010F03D11A6842F09A
:10173C0001021A602268136823F4006313602123EA
:10174C0084F83D30102384F83E3000232364C4F821
:10175C002490A4F82A80638D23853B4BE3622B46AF
:10176C00324639462046FFF7F7FC0746002866D17B
:10177C000023039323685A6903929B690393039B89
:10178C0011E0236C042B01D00127B4E72268136805
:10179C0043F400731360F7E72A4631462046FFF7FF
:1017AC005BFE00282ED1238D002B36D02A463146E5
:1017BC002046FFF7BBFD0028E3D1626A236812784C
:1017CC001A61616A4B1C6362638D9BB2013B9BB2D5
:1017DC006385238D013B9BB223852268506910F0F1
:1017EC00040FD9D0002BD7D04B781361636A013327
:1017FC006362638D9BB2013B9BB26385238D013B7E
:10180C002385C9E7236C042B01D0012773E72268D9
:10181C00136843F400731360F7E72268136843F40A
:10182C0000731360202384F83D30002384F83E308D
:10183C0084F83C305FE702275DE702275BE701276E
:10184C0059E700BF020010000000FFFF2DE9F04334
:10185C0089B004460F4691469846109E0023079384
:10186C00FEF7B0FC054694F83D00C0B2202804D029
:10187C000227384609B0BDE8F083009519230122F0
:10188C009D492046FFF7D8FB002840F0728194F860
:10189C003C30012B00F06F81012384F83C3023682D
:1018AC001A6812F0010F03D11A6842F001021A6093
:1018BC002268136823F400631360222384F83D30FC
:1018CC00102384F83E3000232364C4F82490A4F839
:1018DC002A80638D2385894BE3622B463246394639
:1018EC002046FFF793FC0746002840F04681238DE5
:1018FC005BB9039323685A6903929A690392039A1A
:10190C001A6842F400721A6076E0012B0FD0022B99
:10191C0021D02268136843F480631360002306937C
:10192C0023685A6906929B690693069B64E02268B9
:10193C00136823F48063136072B600230493236846
:10194C005A6904929A690492049A1A6842F40072D1
:10195C001A6062B650E02268136843F400631360A7
:10196C0072B60023059323685A6905929A69059209
:10197C00059A1A6822F480621A6062B63CE02A4624
:10198C0031462046FFF792FD002840F0F88023688E
:10199C001A69636A1A70636A01336362238D013BAF
:1019AC002385638D9BB2013B9BB2638524E072B6A9
:1019BC002268136843F40073136023681A69636A1E
:1019CC001A70636A01336362238D013B2385638D37
:1019DC009BB2013B9BB2638562B623681A69636A4A
:1019EC001A70636A01336362238D013B2385638D17
:1019FC009BB2013B9BB26385238D002B00F0B08022
:101A0C00032B00F28380012BB9D0022B0AD1009555
:101A1C00334600223A492046FFF70EFB0028C6D079
:101A2C00012726E700953346002235492046FFF76B
:101A3C0003FB002840F0A5802268136823F4806320
:101A4C00136072B623681A69636A1A70636A013389
:101A5C006362238D013B2385638D9BB2013B9BB25B
:101A6C006385284B1B68DB08274AA2FB03231B0A50
:101A7C0003EB8303C3EBC3030793079B013B079360
:101A8C00079B002B28D023685A6912F0040FF4D05E
:101A9C001A6842F400721A6023681A69636A1A7031
:101AAC00636A01336362238D013B2385638D9BB293
:101ABC00013B9BB2638562B623681A69636A1A702C
:101ACC00636A01336362238D013B2385638D9BB273
:101ADC00013B9BB263858FE72363202284F83D2072
:101AEC0084F83E30226C42F02002226462B684F804
:101AFC003C300127BDE600BF020010000000FFFFD4
:101B0C00040001002C00002089B5F8142A46314647
:101B1C002046FFF7CBFC002835D123681A69636A8D
:101B2C001A70626A531C6362238D013B2385638D9B
:101B3C009BB2013B9BB263852368596911F0040F7A
:101B4C003FF45AAF1B695370636A01336362238D90
:101B5C00013B2385638D9BB2013B9BB263854BE7B5
:101B6C00202384F83D30002384F83E3084F83C3048
:101B7C007FE602277DE602277BE6012779E601272F
:101B8C0077E6012775E6012773E600BF2DE9F043E0
:101B9C0083B004460F46904699460C9EFEF712FB06
:101BAC00054694F83D00C0B2202803D0022003B0B3
:101BBC00BDE8F0830095192301224B492046FFF71D
:101BCC003BFA002840F0898094F83C30012B00F05F
:101BDC008680012384F83C3023681A6812F0010FC8
:101BEC0003D11A6842F001021A602268136823F4C8
:101BFC0000631360212384F83D30402384F83E3089
:101C0C00002323640A9B6362BDF82C306385638DCB
:101C1C002385364BE362019500964B464246394686
:101C2C002046FFF7ADFB00285BD1238D002B35D070
:101C3C002A4631462046FFF779FB20BB626A2368AF
:101C4C0012781A61616A4B1C6362228D013A92B25E
:101C5C002285638D9BB2013B9BB2638523685869D7
:101C6C0010F0040FE1D0002ADFD04A781A61636AC1
:101C7C0001336362238D013B2385638D9BB2013B52
:101C8C009BB26385D1E7236C042B01D001208EE736
:101C9C002268136843F400731360F7E72A46314651
:101CAC002046FFF7D9FB50B1236C042B01D0012047
:101CBC007DE72268136843F400731360F7E722682A
:101CCC00136843F400731360202384F83D30002321
:101CDC0084F83E3084F83C3069E7022067E7022044
:101CEC0065E7012063E700BF020010000000FFFF62
:101CFC0082B0084B1B68084AA2FB03235B0A00FB5B
:101D0C0003F3019300BF019B5A1E0192002BF9D1E2
:101D1C0002B070472C000020D34D6210002800F058
:101D2C00F18170B582B00446036813F0010F2CD01A
:101D3C00AA4B5B6803F00C03042B1DD0A74B5B680C
:101D4C0003F00C03082B12D06368B3F5803F41D02D
:101D5C00002B55D103F1804303F504331A6822F4A8
:101D6C0080321A601A6822F480221A6037E09B4B8A
:101D7C005B6813F4803FE7D0984B1B6813F4003F6B
:101D8C0003D06368002B00F0BF81236813F0020FAF
:101D9C0075D0924B5B6813F00C0F5FD08F4B5B6868
:101DAC0003F00C03082B54D02369002B00F089801E
:101DBC008B4B01221A60FEF705FA0546874B1B6810
:101DCC0013F0020F74D1FEF7FDF9401B0228F5D970
:101DDC0003209EE1814A136843F4803313606368E7
:101DEC0043B3FEF7EFF905467C4B1B6813F4003F39
:101DFC00CBD1FEF7E7F9401B6428F5D9032088E125
:101E0C00B3F5A02F09D0754B1A6822F480321A60F2
:101E1C001A6822F480221A60E1E703F18043A3F5EB
:101E2C003C331A6842F480221A601A6842F48032F9
:101E3C001A60D4E7FEF7C6F90546684B1B6813F425
:101E4C00003FA2D0FEF7BEF9401B6428F5D9032051
:101E5C005FE1624B5B6813F4803FA5D15F4B1B685D
:101E6C0013F0020F03D02369012B40F04F815B4A22
:101E7C00136823F0F803616943EAC1031360236814
:101E8C0013F0080F32D0A369002B45D0554B01221B
:101E9C001A60FEF797F90546504B5B6A13F0020F78
:101EAC0021D1FEF78FF9401B0228F5D9032030E130
:101EBC004A4A136823F0F803616943EAC1031360CB
:101ECC00DDE7474B00221A60FEF77CF90546434BD1
:101EDC001B6813F0020FD2D0FEF774F9401B0228D6
:101EEC00F5D9032015E10120FFF702FF236813F059
:101EFC00040F00F09780394BDB6913F0805F1DD124
:101F0C00364BDA6942F08052DA61DB6903F08053B8
:101F1C000193019B012512E0324B00221A60FEF75F
:101F2C0051F905462D4B5B6A13F0020FDED0FEF71C
:101F3C0049F9401B0228F5D90320EAE000252A4B79
:101F4C001B6813F4807F11D0E368012B22D0002B87
:101F5C0038D103F1804303F504331A6A22F00102ED
:101F6C001A621A6A22F004021A6218E01E4A1368F6
:101F7C0043F480731360FEF725F906461A4B1B6871
:101F8C0013F4807FE0D1FEF71DF9801B6428F5D98E
:101F9C000320BEE0114A136A43F001031362E368A5
:101FAC0073B3FEF70FF906460C4B1B6A13F0020FC6
:101FBC0037D1FEF707F9801B41F288339842F3D9E9
:101FCC000320A6E0052B11D0044B1A6A22F0010263
:101FDC001A621A6A22F004021A62E0E70010024048
:101FEC000000424280044242007000404D4B1A6A8D
:101FFC0042F004021A621A6A42F001021A62CEE737
:10200C00FEF7E0F80646474B1B6A13F0020F08D0A8
:10201C00FEF7D8F8801B41F288339842F3D903209D
:10202C0077E0E5B9E369002B72D03E4A526802F0C2
:10203C000C02082A56D0022B17D03B4B00221A60F8
:10204C00FEF7C0F80446374B1B6813F0007F47D0EF
:10205C00FEF7B8F8001B0228F5D9032059E0314AE5
:10206C00D36923F08053D361DCE72F4B00221A6035
:10207C00FEF7A8F805462B4B1B6813F0007F06D023
:10208C00FEF7A0F8401B0228F5D9032041E0236A93
:10209C00B3F5803F1AD023494B6823F47413226A9A
:1020AC00606A024313434B601F4B01221A60FEF718
:1020BC0089F804461B4B1B6813F0007F0ED1FEF70A
:1020CC0081F8001B0228F5D9032022E0154A536839
:1020DC0023F40033A1680B435360DCE7002018E0C5
:1020EC00002016E0012B16D00E4B5B6803F48031F8
:1020FC00226A914211D103F47013626A93420ED199
:10210C00002006E001207047012002E0012000E0E1
:10211C00002002B070BD0120FBE70120F9E701208F
:10212C00F7E700BF001002406000424286B0164B39
:10213C000FCB0DF1180C0CE90F0040F20123ADF898
:10214C000430124B5B6803F00C02082A02D01048D2
:10215C0006B07047C3F38342624412F8102C13F498
:10216C00803F0CD0094B5B68C3F34043634413F8C6
:10217C00143C074800FB02F0B0FBF3F0E8E705481D
:10218C0000FB02F0E4E700BF94520008001002408C
:10219C0000127A0000093D00002800F0A08070B504
:1021AC000D460446524B1B6803F007038B420BD2BF
:1021BC004F4A136823F007030B431360136803F0B3
:1021CC0007038B4240F08D80236813F0020F17D069
:1021DC0013F0040F04D0474A536843F4E063536090
:1021EC00236813F0080F04D0424A536843F4605339
:1021FC005360404A536823F0F003A1680B435360CB
:10220C00236813F0010F31D06368012B20D0022B0F
:10221C0025D0384A126812F0020F64D035494A684A
:10222C0022F0030213434B60FDF7CCFF0646314B03
:10223C005B6803F00C036268B3EB820F16D0FDF7FA
:10224C00C1FF801B41F288339842F0D9032045E04E
:10225C00284A126812F4003FE0D101203EE0254AE2
:10226C00126812F0007FD9D1012037E0204B1B6897
:10227C0003F00703AB420AD91D4A136823F0070386
:10228C002B431360136803F00703AB422DD1236873
:10229C0013F0040F06D0174A536823F4E063E16887
:1022AC000B435360236813F0080F07D0114A53688F
:1022BC0023F46053216943EAC1035360FFF736FFEF
:1022CC000C4B5B68C3F303130B4AD35CD8400B4B2A
:1022DC0018600B4B1868FDF733FF002070BD012010
:1022EC0070470120FAE70120F8E70120F6E700BF6C
:1022FC0000200240001002407C5200082C000020FC
:10230C0004000020014B1868704700BF2C0000200F
:10231C0008B5FFF7F7FF044B5B68C3F30223034ACE
:10232C00D35CD84008BD00BF001002408C5200089E
:10233C0070B4036A23F001030362036A466882697E
:10234C0022F073020C6844EA020523F002028B6847
:10235C0013430D4CA04209D00B4CA0420DD046604B
:10236C0085614A684263036270BC704723F00803BE
:10237C00CA68134323F00403EEE726F440764A6957
:10238C0032438E691643EAE7002C014030B4036AED
:10239C0023F480730362036A4568C26922F07302F6
:1023AC000C68224323F400738C6843EA04230F4C1B
:1023BC00A04209D00D4CA0420ED04560C2614A68C3
:1023CC00C263036230BC704723F40063CC6843EAF9
:1023DC00042323F48063EDE725F440554C6945EA6A
:1023EC0004158C6945EA0415E7E700BF002C014091
:1023FC0030B4036A23F480530362036A4468C269ED
:10240C0022F4E6420D6842EA052223F400538D685B
:10241C0043EA0533074DA84206D04460C2614A68BE
:10242C000264036230BC704724F480444D6944EA72
:10243C008514F2E7002C014030B4036A056A25F0DC
:10244C0001050562846924F0F00444EA021423F0C7
:10245C000A030B438461036230BC704730B4056AD5
:10246C0025F0100505628469036A24F4704444EA7B
:10247C00023423F0A00343EA01138461036230BCED
:10248C007047836823F070030B4343F007038360AA
:10249C007047000090F83D30DBB2012B27D10223AE
:1024AC0080F83D300268D36843F00103D3600368C1
:1024BC00114A934210D0B3F1804F0DD0A2F5943253
:1024CC00934209D002F58062934205D01A6842F01B
:1024DC0001021A60002070479A6802F00702062A6F
:1024EC0007D01A6842F001021A60002070470120E0
:1024FC0070470020704700BF002C01400268D36871
:10250C0023F00103D3600368196A41F211121142DE
:10251C0008D1196A40F24442114203D11A6822F0E0
:10252C0001021A60012380F83D300020704770478B
:10253C00704770477047704710B5044603681A69B6
:10254C0012F0020F11D0DA6812F0020F0DD06FF0FA
:10255C0002021A610123037703689B6913F0030FCE
:10256C0070D0FFF7E6FF0023237723681A6912F077
:10257C00040F12D0DA6812F0040F0ED06FF00402C0
:10258C001A610223237723689B6913F4407F5FD081
:10259C002046FFF7CEFF0023237723681A6912F039
:1025AC00080F12D0DA6812F0080F0ED06FF0080284
:1025BC001A61042323772368DB6913F0030F4ED0D1
:1025CC002046FFF7B6FF0023237723681A6912F021
:1025DC00100F12D0DA6812F0100F0ED06FF010023C
:1025EC001A61082323772368DB6913F4407F3DD0FD
:1025FC002046FFF79EFF0023237723681A6912F009
:10260C00010F03D0DA6812F0010F36D123681A6972
:10261C0012F0800F03D0DA6812F0800F34D12368E7
:10262C001A6912F0400F03D0DA6812F0400F32D161
:10263C0023681A6912F0200F03D0DA6812F0200F09
:10264C0030D110BDFFF774FF2046FFF773FF8AE708
:10265C002046FFF76DFF2046FFF76CFF9BE72046F7
:10266C00FFF766FF2046FFF765FFACE72046FFF754
:10267C005FFF2046FFF75EFFBDE76FF001021A61B6
:10268C00204601F041FAC1E76FF080021A61204642
:10269C0000F0ABFAC3E76FF040021A612046FFF777
:1026AC004AFFC5E76FF020021A61204600F09CFA41
:1026BC00C7E7000003681B4A90420AD0B0F1804F74
:1026CC0007D0A2F59432904203D002F5806290427A
:1026DC0003D123F070034A681343124A90420AD084
:1026EC00B0F1804F07D0A2F59432904203D002F59E
:1026FC008062904203D123F44073CA68134323F0E1
:10270C0080034A69134303608B68C3620B6883625E
:10271C00044B984202D00123436170470B69036359
:10272C00F9E700BF002C014040B310B5044690F807
:10273C003D30F3B1022384F83D30214651F8040BAF
:10274C00FFF7B8FF012384F8463084F83E3084F854
:10275C003F3084F8403084F8413084F8423084F8BB
:10276C00433084F8443084F8453084F83D30002000
:10277C0010BD80F83C3001F0AFFBDBE70120704767
:10278C0040B310B5044690F83D30F3B1022384F801
:10279C003D30214651F8040BFFF78CFF012384F8E0
:1027AC00463084F83E3084F83F3084F8403084F86A
:1027BC00413084F8423084F8433084F8443084F853
:1027CC00453084F83D30002010BD80F83C30FFF7D8
:1027DC00AEFEDBE70120704730B4036A23F0100330
:1027EC000362036A4468826922F4E6420D6842EA95
:1027FC00052223F020038D6843EA05130E4DA842F1
:10280C0009D00D4DA8420ED0446082614A688263A3
:10281C00036230BC704723F08003CD6843EA051394
:10282C0023F04003EDE724F440644D6944EA850449
:10283C008D6944EA8504E7E7002C014038B590F82F
:10284C003C30012B60D004460D46012380F83C300F
:10285C000C2A1AD8DFE802F0071919191D191919D1
:10286C003119191944000068FFF762FD2268936959
:10287C0043F0080393612268936923F00403936186
:10288C002268936929690B439361002084F83C000A
:10289C0038BD0068FFF7A0FF2268936943F400631A
:1028AC0093612268936923F480639361226893692E
:1028BC00296943EA01239361E7E70068FFF766FDA6
:1028CC002268D36943F00803D3612268D36923F0EB
:1028DC000403D3612268D36929690B43D361D4E71C
:1028EC000068FFF785FD2268D36943F40063D36168
:1028FC002268D36923F48063D3612268D369296980
:10290C0043EA0123D361C0E70220C1E710B4846815
:10291C0024F47F4442EA03220A432243826010BC1F
:10292C00704790F83C30012B66D010B5044601235B
:10293C0080F83C30022380F83D300268936823F421
:10294C007F4323F0770393600B68602B40D022D831
:10295C00402B47D00BD9502B0ED1CA684968006860
:10296C00FFF76AFD50212068FFF78BFD04E0202B58
:10297C000CD008D9302B09D0012384F83D3000202D
:10298C0084F83C0010BD0BB1102BF5D11946206812
:10299C00FFF777FDF0E7702B0ED0B3F5005FEBD1AE
:1029AC00CB684A6889680068FFF7B0FF22689368B3
:1029BC0043F480439360DFE7CB684A68896800681A
:1029CC00FFF7A4FF2268936843F077039360D3E783
:1029DC00CA6849680068FFF741FD60212068FFF76D
:1029EC0050FDC9E7CA6849680068FFF725FD40211A
:1029FC002068FFF746FDBFE70220704710B401F0D6
:102A0C001F01012303FA01F4036A23EA040303629E
:102A1C00036A02FA01F10B43036210BC7047000019
:102A2C0010B50446084651BB94F83E30DBB2013B6E
:102A3C0018BF0123002B5BD1002839D1022384F865
:102A4C003E30012201462068FFF7D8FF23682A4A4E
:102A5C0093423DD02368284A93423ED0B3F1804F35
:102A6C003BD0A2F59432934237D002F58062934268
:102A7C0033D01A6842F001021A60002039E00429B0
:102A8C0008D008290DD094F84130DBB2013B18BFB7
:102A9C000123CFE794F83F30DBB2013B18BF012391
:102AAC00C8E794F84030DBB2013B18BF0123C1E703
:102ABC00042805D0082807D0022384F84130C0E749
:102ACC00022384F83F30BCE7022384F84030B8E797
:102ADC005A6C42F400425A64BCE79A6802F007024E
:102AEC00062A07D01A6842F001021A60002000E0A2
:102AFC00012010BD0020FCE7002C014038B5044635
:102B0C000D4600220068FFF779FF23681B4A9342A9
:102B1C0014D02368196A41F21112114208D1196AB2
:102B2C0040F24442114203D11A6822F001021A60A9
:102B3C009DB9012384F83E30002038BD196A41F25A
:102B4C0011121142E5D1196A40F244421142E0D10E
:102B5C005A6C22F400425A64DBE7042D05D0082D90
:102B6C0007D0012384F84130E6E7012384F83F3095
:102B7C00E2E7012384F84030DEE700BF002C01407F
:102B8C0090F83C30012B2BD030B4012380F83C3032
:102B9C00022380F83D3003685C689D6824F0700463
:102BAC000A6822435A6003680E4A93420AD0B3F172
:102BBC00804F07D0A2F59432934203D002F5806285
:102BCC00934204D125F080054A6815439D6001238A
:102BDC0080F83D30002380F83C30184630BC7047FC
:102BEC0002207047002C0140704770470D4A136952
:102BFC0043F0020313610B4BDB6813F0010FFAD1A6
:102C0C00084B58611A6942F040021A61054BDB68A7
:102C1C0013F0010FFAD1034A136923F00203136175
:102C2C00704700BF0020024008B5FEF727F80448A3
:102C3C00FFF7DCFF034A136923F00203136108BD9D
:102C4C0000C001080020024008B5FEF731F808BDAD
:102C5C0008B50A46002300F1006101F5E0310120BE
:102C6C00FEF764F808BD00F1006000F5E030008864
:102C7C0080B27047F8B506460D461F46012A01D0B2
:102C8C0000241CE0FFF7D0FF0A20FDF7A1FA002476
:102C9C00AC420AD0315D07EB4400FFF7D9FF14209A
:102CAC00FDF796FA0134E4B2F2E7FFF7CDFF08E046
:102CBC0007EB4400FFF7D7FF30550134E4B2AC42C8
:102CCC00F6D1F8BD10B584B001290DD0A021322465
:102CDC00029401930092022302460548FEF756FF28
:102CEC0020B9012004B010BDA221F0E70020F9E7C3
:102CFC00D414002000B585B0030A8DF80C308DF883
:102D0C000D0001290CD0A02101230093022303AA5A
:102D1C000548FEF7DFFC28B9012005B05DF804FB7F
:102D2C00A221F1E70020F8E7D414002000B583B00D
:102D3C0003460A4632210091A1210348FEF786FD85
:102D4C0003B05DF804FB00BFD414002008B50023C9
:102D5C001A4620210D48FFF78DFF0023102B06D0BB
:102D6C000A4AD15C0A4AD1540133DBB2F6E700239C
:102D7C00102B0AD003F110020449895C044A1A444E
:102D8C00890011740133DBB2F2E708BD3001002079
:102D9C000800002070B503460D46164AFF2111703D
:102DAC00154A002111700F280BD9A0F11003DBB2CA
:102DBC0001211B0303F47040FFF79CFF00263446EF
:102DCC0003E00021F5E70136F6B2102E11D00B49C5
:102DDC004FF48070FFF7AAFF0023B3F5807FF2D089
:102DEC00064AD25C92002A550134A4B201339BB23C
:102DFC00F3E770BDC0000020BE0000207801002069
:102E0C002DE9F04F83B001911F2802D903B0BDE822
:102E1C00F08F04461D4D08212846FFF76FFE1C4E0F
:102E2C00FF237360082231462846FFF707FD08216F
:102E3C002846FFF7F5FD174F3846FFF75FFBDFF825
:102E4C005C9099F800B0DFF8588098F800A00199D0
:102E5C002046FFF79FFF142000F032F989F800B0EC
:102E6C0088F800A03846FFF715FB08212846FFF725
:102E7C0045FE094B5B797360082231462846FFF703
:102E8C00DDFC08212846FFF7CBFDBFE79C25002081
:102E9C00DC00002034260020C8030020BF000020E6
:102EAC002900002038B504468379CBB9274B1B8801
:102EBC00012B00D038BD264D08212846FFF71EFEF9
:102ECC00637924494B6008222846FFF7B7FC082198
:102EDC002846FFF7A5FD1D4B00221A809A80E9E7D2
:102EEC001A4901220A808A88013292B28A809BB2E6
:102EFC009A42DFD100228A804B889BB9144C08215E
:102F0C002046FFF7FBFD1349FF234B6008222046A8
:102F1C00FFF794FC08212046FFF782FD0B4B0122A2
:102F2C005A80C7E70A4D08212846FFF7E7FD637969
:102F3C0008494B6008222846FFF780FC08212846E8
:102F4C00FFF76EFD014B00225A80B3E7B40000205E
:102F5C009C250020DC00002038B505460C4601F00D
:102F6C0067F9C1B2C0F307200844C0B2611B01313C
:102F7C0090FBF1F301FB1300C0B22844C0B238BD82
:102F8C002DE9F0410C462F4991F82010012909D068
:102F9C002D4A138901339BB21381B3F5966F3DD043
:102FAC00BDE8F08105461646284A1278002AF7D16A
:102FBC00DFF8A080244FBA79194618F80200FFF701
:102FCC001FFF142000F07CF8BB7918F803000130C7
:102FDC003146C0B2FFF714FF142000F071F8BB7932
:102FEC00984498F80830E37100262E7003210120D4
:102FFC00FFF7B2FFE070192323711548FFF74AFA67
:10300C00124B01221A700F4B83F82060BB791344CA
:10301C00DBB2BB71082BC3D1BE71C1E713460022D2
:10302C001A8106210420FFF797FFE0701923237102
:10303C000748FFF72FFA0123044A1370014A82F85C
:10304C002030ADE708000020B4000020C6000020AE
:10305C00E42500206C5200082DE9F0410746154686
:10306C0098460139CCB20F2C00D90E24104E06997B
:10307C00305DFFF7C5FE305D01304146C0B2FFF751
:10308C00BFFE3444237CEB7100233B70094BFF22C1
:10309C001A7003210120FFF75FFFE87019232B71D1
:1030AC000548FFF7F7F9054B01221A70BDE8F081CE
:1030BC000800002029000020E4250020C600002084
:1030CC0082B0124B5B68019300EBC000C000009013
:1030DC00019BDB43009A934210D2019B009A13444C
:1030EC0001330093094B5A68019B9A42FAD8074B5B
:1030FC005A68009B9A42F5D302B07047034B5B6849
:10310C00019A9B1A009A9342F8D3F5E7001000E05D
:10311C004FF06043074AC3F8B02F074AD36843F017
:10312C008073D360054B00225A601A6842F001028A
:10313C001A60704755CEACC5F0ED00E0001000E011
:10314C0070B5374B1B78374A1278934203D3344A05
:10315C00527893421DD900224FF47C413248FDF73E
:10316C0043FF324C012211462046FDF73DFF002261
:10317C0001212046FDF738FF294A13780133DBB2D1
:10318C00137013F0800F10D1254B9B79012B41D07C
:10319C0070BD264C012211462046FDF725FF00226A
:1031AC0001212046FDF720FFE6E7204D01224FF4D8
:1031BC0080712846FDF718FF194C00262670A2785E
:1031CC0002F0010204212846FDF70EFFA278C2F39B
:1031DC00400208212846FDF707FFA278C2F38002BF
:1031EC0010212846FDF700FFA278C2F3C00220216F
:1031FC002846FDF7F9FEA378013303F00F03A37003
:10320C0032464FF480712846FDF7EEFEA378DB01C1
:10321C00A380B9E7024B00229A711A709A70B7E733
:10322C00BE00002029000020000C014000080140D5
:10323C0008B57A4A13780133DBB21370784A1279E5
:10324C00934200D008BD754B00221A70744BDB788A
:10325C00013B052BF6D8DFE813F0060046009A0078
:10326C0028007000BE006F4B1B78012B13D06E4AE8
:10327C001378013BDBB21370002BE3D1694B0122B5
:10328C001A706A4B7F221A706948FFF737F9634B43
:10329C0000225A70D6E7644B7F221A70634B7E2251
:1032AC001A70604B00221A70CCE75E4B1B78012B16
:1032BC0010D05D4A13780133DBB213707F2BC1D170
:1032CC00584B01221A705A48FFF718F9534B002239
:1032DC005A70B7E70023544A1370544A7E21117078
:1032EC00504A1370AEE74F4B1B78012B18D04E4B46
:1032FC001B787F2B1DD04D4A1378013313704B4B29
:10330C001B787E2B9ED1474B01221A70474B7F2294
:10331C001A704748FFF7F2F8404B00225A7091E7B9
:10332C00414B7F221A700023404A13703D4A1370A0
:10333C0088E73D4B00221A70E1E73A4B1B78012BD2
:10334C0012D0394B1B787F2B17D0384B1B7813B905
:10335C00354A7F211170344A1278002A7FF472AFFB
:10336C00013B324A13706DE700232F4A13702F4A2A
:10337C007E2111702B4A137064E72A4B01221A70BC
:10338C002B48FFF7BBF8254B00225A70DDE7254B85
:10339C001B78012B15D0244A1378013BDBB2137038
:1033AC0022490A7801320A70002B7FF44BAF1D4B77
:1033BC0001221A701E48FFF7A1F8184B00225A7010
:1033CC0040E7194B40221A70184B3F221A70154BCC
:1033DC0000221A7036E7134B1B78012B15D0124ABA
:1033EC0013780133DBB2137010490A78013A0A7072
:1033FC00402B7FF427AF0B4B01221A700C48FFF7C0
:10340C007DF8064B00225A701CE70023064A137005
:10341C00064A7E211170034A137013E7C500002081
:10342C00C80300202A00002029000020BF00002033
:10343C00E425002038B504460378552B08D06C4B96
:10344C00DB79012B32D06A4B1B78012B54D038BD61
:10345C00C379AA2BF3D1664B01221A7042785A70A9
:10346C00022301E00133DBB2072B06D0E25C002A19
:10347C00F8D05F4A00211170F4E75D4B1B78012BEB
:10348C00DDD15B4B01229A700022DA701A715A71ED
:10349C009A71584D2846FFF731F82023EB602846E7
:1034AC00FFF742F92846FEF7F5FFC8E72378AA2B69
:1034BC0014D04F4A937943F0040393714C4B002280
:1034CC00DA714C4D2846FFF719F80423EB602846B7
:1034DC00FFF72AF92846FEF7DDFFB4E7E379552B11
:1034EC00E7D1A278424B5B799A42E7D0404A937974
:1034FC0043F002039371E1E73D4B9B78012B69D0BC
:10350C0021783B4A53790B44DBB260780344DBB23D
:10351C00A0780344DBB2E0780344DBB220790344A7
:10352C00DBB260790344DBB2A0790344DBB2E0790F
:10353C0003445371D578681CC0B22F4B5955411CAC
:10354C00C9B265781D54481CC0B2A5785D54411CA5
:10355C00C9B2E5781D54481CC0B225795D54411C94
:10356C00C9B265791D54481CC0B2A5795D54411C83
:10357C00C9B2D170E2791A5409BB1D4B5B780F2B81
:10358C002CD91B4A01211172103B9BB21B019BB21F
:10359C0011790B449BB21B02538115484FF4807375
:1035AC00154A017A4089FFF78DFB20B9104A9379AF
:1035BC0043F0010393710E4A1379013313710C4BD1
:1035CC001B79102B7FF443AF094B00221A70012298
:1035DC00DA713CE7064B00229A7038E70449002266
:1035EC000A720A7902EB03131B024B81D5E700BF69
:1035FC00C8000020342600207801002070B5044655
:10360C000D460378062B17D8DFE803F004172516B0
:10361C0016303300184E08213046FFF76FFA6378E6
:10362C0016494B6008223046FFF708F9082130464E
:10363C00FFF7F6F963786B7170BD437801220A705D
:10364C0013F0800F05D100224A7003F01F03AB70FA
:10365C00F2E74A70F9E74378CB7083780B7108482E
:10366C00FEF718FF074B01221A70E5E743788B71C0
:10367C00E2E74378CB71DFE79C250020DC000020DB
:10368C00E4250020C600002010B5503803280AD8C5
:10369C00DFE800F00A162239C85C1C4AD05401330A
:1036AC00DBB2082BF8D110BD0023FAE703F10802B6
:1036BC00CC5C164884540133DBB2082BF6D1F2E70C
:1036CC000023FAE703F11002CC5C10488454013358
:1036DC00DBB2082BF6D1E6E70023FAE703F1180278
:1036EC00CC5C0A4884540133DBB2082BF6D100239E
:1036FC00012220210548FFF7BDFA1920FCF768FDCF
:10370C00FDF704F9CFE70023EFE700BF900300209B
:10371C0000BB38B50C461D46422909D0412C0BD0B4
:10372C00402C0ED040F6FC732340502B0DD038BDEE
:10373C001846FFF77FFEF1E707492846FFF75EFFC3
:10374C00EEE76A78054B1A73ECE729462046FFF73B
:10375C009BFFECE7704700BFC8030020C8000020A7
:10376C0000B58BB001AB03AA0021FCF798FE01ABAE
:10377C00079A0399FFF7CCFF0BB05DF804FB00B57B
:10378C008BB001AB03AA0121FCF789FE01AB079AB0
:10379C000399FFF7BDFF0BB05DF804FB2DE9F8436F
:1037AC00144664230360012646600025C5608560CD
:1037BC00022303610575AA230B7055234B705561C9
:1037CC009561D6614FF4046313605560DFF858902F
:1037DC00C2F80890D560156116624FF00E08C2F859
:1037EC002480104F11463846FCF7ACFD6661A5618C
:1037FC00E6614FF4206323606560C4F80890E560CF
:10380C0026612662C4F8248021463846FCF79AFDCE
:10381C003846FCF716FE12213846FCF7E0FEBDE8F0
:10382C00F88300BF7425002080FF0100014B0122AA
:10383C001A707047C4000020024A137801331370C9
:10384C00704700BFD80000202DE9F04389B0002458
:10385C0004940594069407942F4B9A6942F0100235
:10386C009A619A6902F010020092009A9A6942F0E9
:10387C0020029A619A6902F020020192019A9A69D7
:10388C0042F004029A619A6902F004020292029ACE
:10389C009A6942F008029A619B6903F0080303934A
:1038AC00039BDFF87C9022464FF400514846FDF70D
:1038BC009BFBDFF87080224648F23D514046FDF7F5
:1038CC0093FB164F22464FF47C413846FDF78CFB98
:1038DC004FF4005304930126059606940225079590
:1038EC0004A94846FDF770FA48F23D530493059637
:1038FC000694079504A94046FDF766FA4FF47C43FD
:10390C00049305960694079504A93846FDF75CFACE
:10391C0009B0BDE8F08300BF00100240000C01406C
:10392C00001001400008014030B587B0002402941B
:10393C00039404940594009401940F4D0F4B2B6049
:10394C0048236B60AC604FF47A73EB602C616C6154
:10395C008023AB612846FEF7E7FE4FF480530293B9
:10396C0002A92846FEF7DDFF00940194694628461B
:10397C00FFF706F907B030BDE4250020002C01400C
:10398C0030B587B0002402940394049405940094F9
:10399C0001940F4D4FF080432B6024236B60AC607F
:1039AC000423EB602C618023AB612846FEF7BCFE40
:1039BC004FF48053029302A92846FEF7B2FF0094FD
:1039CC00019469462846FFF7DBF807B030BD00BF0D
:1039DC003426002030B58FB000240A940B940C943C
:1039EC000D940894099401940294039404940594FE
:1039FC0006940794194D1A4B2B6024236B60AC6012
:103A0C00FE23EB602C61AC612846FEF78DFE4FF473
:103A1C0080530A930AA92846FEF783FF2846FEF72F
:103A2C00AFFE0894099408A92846FFF7A9F860236B
:103A3C0001938023029303940594082201A928463C
:103A4C00FEF7FCFE074B019A5A60039ADA60059A5E
:103A5C005A61284600F0A4FA0FB030BD9C25002016
:103A6C0000040040D800002008B50B480B4B036045
:103A7C000923436000238360C3604FF480220261FA
:103A8C004FF440124261037643768376C376037714
:103A9C004377FCF7B1FB08BD74250020006400409F
:103AAC0008B50948094B0360094B43600023836048
:103ABC00C3604FF48042026143618361C36103625E
:103ACC00FDF72AFD08BD00BFD414002000540040AF
:103ADC00A086010000B583B00A4B5A6942F001027E
:103AEC005A615B6903F001030193019B00221146AB
:103AFC000C20FCF7C9FE0C20FCF7FAFE03B05DF8B5
:103B0C0004FB00BF0010024008B50268034B9A4248
:103B1C0000D008BDFFF78CFBFBE700BF002C014079
:103B2C0038B5054690F83D40E0B2022817D095F81C
:103B3C003D40E0B2012804D101B983B9022085F8D7
:103B4C003D00286AFCF756FF2A68D36843F480735B
:103B5C00D3602A68136843F001031360002038BD5A
:103B6C0030B591B0002409940B940C9401940294F8
:103B7C00039404940594012206924FF48033079326
:103B8C0008940A9202250D950E934FF4E0130F93AF
:103B9C0006A8FEF7C3F80F230193029503944FF484
:103BAC00A06304930594294601A8FEF7F5FA11B019
:103BBC0030BD00002DE9F04184B000248DF80F4099
:103BCC00FCF7E2FAFFF7CCFFFFF73EFEFFF7ACFE87
:103BDC00FFF700FFFFF748FFFFF762FFFFF77AFFE1
:103BEC00FFF7CEFE234604E09900554AD154013329
:103BFC009BB2B3F5807FF7D1FFF78AFA08215148C1
:103C0C00FEF70EFF504B1870504A51495148FFF7C0
:103C1C00C5FD3220FCF7DCFAFFF798F8002306E02C
:103C2C0000224D49CA544D49CA5401339BB2B3F5D5
:103C3C00805FF5D1484C4A4B1C604A4D4A4A0021E2
:103C4C002846FCF7B3FF494A02212846FCF7AEFF91
:103C5C00A046474B1C60474A474B1A604FF48053B1
:103C6C0046490B6021464648FFF75AFF364B187001
:103C7C0000273E463C4647E0424B5B78012B08D080
:103C8C003549404B9878FFF7BBF83E4B00221A7031
:103C9C003EE032493B4B9878FFF7B2F8F5E72E4BF4
:103CAC002E4A38490DF10F00FFF76AF92E46354BB5
:103CBC00DA79CAB19DF80F300133DBB28DF80F30D1
:103CCC009A4214D100238DF80F3037B92C4B1B6A54
:103CDC001B68224ADA60012709E0294B1B6A1B6822
:103CEC00C3F80C80002702E000238DF80F3001345C
:103CFC00E4B2142C05D14FF400512348FDF77AF9A6
:103D0C0000240A20FCF764FA1E4B1B78012BB3D05D
:103D1C001C48FFF7C7F81D4B1D78002DBFD0AE42D5
:103D2C00C5D01B4B1B78002BC1D10B4B00930B4BFD
:103D3C00144A29460DF10F00FFF78EF92E46B6E70F
:103D4C00D01300209C25002070250020500100205D
:103D5C0084030020B0030020D00300207015002045
:103D6C00D01400202C1500203938000845380008E4
:103D7C00302600200D0C0140281500202C26002098
:103D8C0034260020C803002000100140D40000207D
:103D9C00C60000207047000082B00E4B9A6942F0BA
:103DAC0001029A619A6902F001020092009ADA69A2
:103DBC0042F08052DA61DB6903F080530193019B7E
:103DCC00054A536823F0E06343F00073536002B07C
:103DDC00704700BF001002400000014030B587B0B2
:103DEC000023029303930493059302681F4B9A429A
:103DFC0001D007B030BD03F5D633DA6942F000725A
:103E0C00DA61DA6902F000720092009A9A6942F063
:103E1C0004029A619B6903F004030193019B4FF424
:103E2C0000630293002403940494114D02A92846C4
:103E3C00FCF7CAFF4FF4805302930223039303232E
:103E4C00059302A92846FCF7BFFF22460421142043
:103E5C00FCF71AFD1420FCF74BFD2246052115201A
:103E6C00FCF712FD1520FCF743FDC2E7006400408F
:103E7C000008014000B587B000230293039304931C
:103E8C0005930268124B9A4202D007B05DF804FB0E
:103E9C0003F5DE339A6942F008029A619A6902F0DE
:103EAC0008020092009ADA6942F40012DA61DB69C6
:103EBC0003F400130193019BC02302931223039379
:103ECC000323059302A90348FCF77EFFDDE700BF3F
:103EDC0000540040000C014010B584B003682B4A1C
:103EEC00934208D00446B3F1804F17D0284A93422E
:103EFC0041D004B010BD274B9A6942F400629A611C
:103F0C009B6903F400630193019B00220221192099
:103F1C00FCF7BAFC1920FCF7EBFCEAE703F50433D9
:103F2C00DA6942F00102DA61DB6903F00103029302
:103F3C00029B1948194B03601023436000238360D4
:103F4C008022C26003614361202383614FF40053DC
:103F5C00C361FCF719FD58B90F4B23625C62002258
:103F6C0001211C20FCF790FC1C20FCF7C1FCC0E7D5
:103F7C00FFF710FFF0E7074BDA6942F00202DA6153
:103F8C00DB6903F002030393039BB2E7002C0140AF
:103F9C0000040040001002402C1500201C000240C0
:103FAC0000B587B000230293039304930593026832
:103FBC000D4B9A4202D007B05DF804FB03F50333B6
:103FCC009A6942F008029A619B6903F00803019315
:103FDC00019B0123029302230393059302A9034837
:103FEC00FCF7F2FEE7E700BF00040040000C0140C4
:103FFC007047FEE7FEE7FEE7FEE770477047704745
:10400C0008B5FCF7D3F808BD08B50248FCF72CFD41
:10401C0008BD00BF2C15002008B50248FCF7FCFABF
:10402C0008BD00BF7425002008B50248FCF7F4FA5F
:10403C0008BD00BF7425002008B50248FEF77CFAC5
:10404C0008BD00BFE425002008B501224FF4004153
:10405C000A48FCF7C9FF0A4B1B68DA6812F0010F1B
:10406C0002D06FF001021A61FFF76AF800224FF4D8
:10407C0000410248FCF7B8FF08BD00BF0008014032
:10408C00342600200120704708B500F09FF8162355
:10409C0003604FF0FF3008BD08B54FF0FF31FFF75C
:1040AC00F3FFFEE770B50C4616460025B54207DA5D
:1040BC00AFF30080214601F8010B01350C46F5E702
:1040CC00304670BD70B50C4616460025B54205DA73
:1040DC0014F8010BAFF300800135F7E7304670BDE3
:1040EC0008B503460B4A126842B10A4A10680344E9
:1040FC006A46934206D8074A136008BD054A06492A
:10410C001160F2E700F062F80C2303604FF0FF300F
:10411C00F3E700BFF8000020902600204FF0FF309E
:10412C0070474FF400534B600020704701207047DC
:10413C00002070470F4B1A6842F001021A60596850
:10414C000D4A0A405A601A6822F0847222F48032B6
:10415C001A601A6822F480221A605A6822F4FE024D
:10416C005A604FF41F029A60044B4FF000629A6041
:10417C00704700BF001002400000FFF800ED00E0A7
:10418C00002103E00B4B5B58435004310A480B4BA6
:10419C0042189A42F6D30A4A02E0002342F8043B42
:1041AC00084B9A42F9D3FFF7C5FF00F015F8FFF75B
:1041BC0001FD7047FC530008000000209400002013
:1041CC00980000208C260020FEE70000014B1868A8
:1041DC00704700BF3000002070B500260C4D0D4C10
:1041EC00641BA410A64209D101F02EF800260A4D3A
:1041FC000A4C641BA410A64205D170BD55F8043BB3
:10420C0098470136EEE755F8043B98470136F2E73C
:10421C00F4530008F4530008F4530008F853000852
:10422C0003460244934200D1704703F8011BF9E79F
:10423C00174B10B51C68A36BB3B9182000F068F8C5
:10424C000246A06320B94E21124B134800F030F8FF
:10425C001249134BC0E90013124B002183600B234E
:10426C0083810120C2E90401A16B0F480A694B69E3
:10427C0050430E4C04FB0300A2FB04345A1C0444B0
:10428C0044F10000C1E9042020F0004010BD00BF43
:10429C0030000020AC520008C35200080E33CDABE6
:1042AC0034126DE6ECDE05002DF451582D7F954C43
:1042BC001FB514461A46094B05461B68D8684CB105
:1042CC00074BCDE9013400912B46064900F00EF85E
:1042DC0000F08AFC044B1C46F3E700BF30000020C2
:1042EC00225300082F5300085D5300080EB403B589
:1042FC00014603AB054853F8042B0068019300F00A
:10430C00DDF802B05DF804EB03B07047300000201C
:10431C00024B0146186800F04FB800BF3000002077
:10432C0038B50546002943D051F8043C0C1F002B2E
:10433C00B8BFE41800F08CFE1E4A1368104633B95F
:10434C00636014602846BDE8384000F087BEA34285
:10435C000AD921686218934201BF1A685B68521827
:10436C00226063600460EDE71A465B680BB1A34200
:10437C00FAD911685018A0420BD12068014450188A
:10438C0083421160DED118685B6801441160536090
:10439C00D8E702D90C232B60D4E7206821188B4274
:1043AC0001BF19685B680918216063605460C9E734
:1043BC0038BD00BF00010020F8B5CD1C25F0030569
:1043CC0008350C2D38BF0C25002D064601DBA94203
:1043DC0003D90C2333600020F8BD00F039FE2149CD
:1043EC000A6814469CB9204F3B6823B921463046D5
:1043FC0000F02AFB38602946304600F025FB431CB0
:10440C0023D10C233046336000F028FEE3E7236809
:10441C005B1B17D40B2B03D923601C44256004E0D1
:10442C006368A2420CBF0B605360304600F016FE6E
:10443C0004F10B00231D20F00700C21ACCD01B1A6C
:10444C00A350C9E722466468CCE7C41C24F00304DB
:10445C00A042E3D0211A304600F0F6FA0130DDD14B
:10446C00CFE700BF0001002004010020936810B4C6
:10447C00013B002B936007DA9469A34201DB0A2904
:10448C0002D110BC00F0F0BA1368581C10601970FF
:10449C00084610BC7047F8B506460F461446D518AA
:1044AC00AC4201D1002007E03A46304614F8011B1B
:1044BC00FFF7DCFF431CF3D1F8BD00002DE9F04FF2
:1044CC000D461446984606469DB018B183690BB943
:1044DC0000F0ACFC894B9D421BD175686B6ED90703
:1044EC0005D4AB899A0502D4A86D00F03DFDAB89CB
:1044FC001B0701D52B69EBB92946304600F006FBAA
:10450C00C0B16B6EDC070ED54FF0FF301DB0BDE8AF
:10451C00F08F7B4B9D4201D1B568DFE7794B9D4213
:10452C0008BFF568DAE7AB899805EDD4A86D00F003
:10453C001CFDE9E70023099320238DF82930302353
:10454C004FF00109CDF80C80DFF8BC818DF82A30D2
:10455C0023469A4613F8012B0AB1252AF9D1BAEB56
:10456C00040B0BD05B46224629463046FFF793FFDF
:10457C00013000F0AA80099A5A4409929AF8003046
:10458C00002B00F0A28000234FF0FF32CDE9052371
:10459C000AF1010A049307938DF853301A93544689
:1045AC00052214F8011B584800F044FD049AD8B9B0
:1045BC00D10644BF20238DF85330130744BF2B235F
:1045CC008DF853309AF800302A2B15D05446002021
:1045DC004FF00A0C079A214611F8013B303B092B8E
:1045EC004ED9B0B1079214E0A0EB080309FA03F31B
:1045FC001343A2460493D2E7039B191D1B68039136
:10460C00002BBBBF5B4242F0020207930793B8BF7B
:10461C00049223782E2B0CD163782A2B35D1039B53
:10462C0002341A1D1B680392002BB8BF4FF0FF33E6
:10463C000593DFF8E4A003225046217800F0FAFC41
:10464C0040B14023A0EB0A0003FA00F0049B0134B4
:10465C000343049314F8011B06222C488DF82810F0
:10466C0000F0E8FC00283FD0294B1BBB039B073311
:10467C0023F0070308330393099B3B44099367E733
:10468C000C4601200CFB0232A5E700234FF00A0C6C
:10469C00194601340593204610F8012B303A092AAB
:1046AC0003D9002BC5D00591C3E7044601230CFBAD
:1046BC000121F0E703AB00932A463046154B04A9C1
:1046CC00AFF300800746781CD6D16B6ED90705D4A2
:1046DC00AB899A0502D4A86D00F047FCAB895B0648
:1046EC003FF512AF099811E703AB00932A46304609
:1046FC00084B04A900F082F8E4E700BFB4530008AB
:10470C00D4530008945300085E5300086853000803
:10471C0000000000A3440008645300082DE9F04792
:10472C00164699468A680B6907469342B8BF1346EA
:10473C00336091F843200C46DDF820800AB1013338
:10474C0033602368990642BF3368023333602568AF
:10475C0015F0060506D104F1190AE36832689B1AB4
:10476C00AB4228DC94F84320131E226818BF0123A7
:10477C0092062DD44946384604F14302C047013015
:10478C0020D02368E56803F00603042B18BF00252E
:10479C0032684FF00006A36808BFAD1A226908BF43
:1047AC0025EAE5759342C4BF9B1AED181A34B5423D
:1047BC001AD1002008E00123524649463846C0472A
:1047CC00013003D14FF0FF30BDE8F0870135C4E76D
:1047DC003020E11881F843005A1C94F8451022440B
:1047EC00023382F84310C5E7012322464946384676
:1047FC00C0470130E6D00136D9E700002DE9FF476C
:10480C000C46277E9146782F80469A460C9904F1E7
:10481C00430207D8622F0AD8002F00F0D980582FF6
:10482C0000F0A48004F1420684F842703AE0A7F14B
:10483C006303152BF6D801A050F823F0A14800080B
:10484C00B5480008314800083148000831480008D4
:10485C0031480008B54800083148000831480008C4
:10486C003148000831480008C3490008E5480008F1
:10487C00A54900083148000831480008E5490008FE
:10488C0031480008E5480008314800083148000864
:10489C00AD4900080B6804F142061A1D1B680A603A
:1048AC0084F842300123A4E0256808682E0600F144
:1048BC0004030AD505680B60002D03DA2D236D4225
:1048CC0084F843300A235E4819E015F0400F056860
:1048DC000B6018BF2DB2EFE70B682568181D086038
:1048EC00280601D51D6802E06906FBD51D886F2FCF
:1048FC000CBF08230A235248002184F84310666831
:10490C00002EA8BF2168A660A4BF21F0040121607D
:10491C000DB9002E4DD01646B5FBF3F103FB115724
:10492C00C75D06F8017D2F46BB420D46F4D9082B16
:10493C000BD12368DF0708D5236961689942DEBF74
:10494C00302306F8013C06F1FF36921B22614B46E0
:10495C0021464046CDF800A003AAFFF7DFFE013048
:10496C004CD14FF0FF3004B0BDE8F087344884F8E8
:10497C0045700E68236856F8045B1F060E6014D54C
:10498C00D90744BF43F0200323601DB9236823F0EB
:10499C00200323601023AFE7236843F02003236038
:1049AC007823284884F84530E3E75E0648BFADB26B
:1049BC00E6E71646BBE70B6826681D1D60690D60AF
:1049CC0035061B6801D5186002E07106FBD518800E
:1049DC00002316462361BAE70B681A1D0A601E688D
:1049EC0000213046626800F025FB08B1801B606036
:1049FC0063682361002384F84330A8E732464946B4
:104A0C0040462369D0470130ABD023689B0713D4B1
:104A1C00E068039B9842B8BF1846A4E701233246CE
:104A2C0049464046D04701309BD00135E368039995
:104A3C005B1AAB42F2DCEBE7002504F11906F5E753
:104A4C006F5300088053000838B50023054D044609
:104A5C0008462B60FFF744FB431C02D12B6803B1C3
:104A6C00236038BD88260020F8B50E46144605464E
:104A7C0018B183690BB900F0D9F9214B9C422BD1A9
:104A8C006C68A369A360A3891A072FD523696BB33C
:104A9C0023692068F6B2C01A63693746834204DC86
:104AAC002146284600F02EF930BBA3680130013BAB
:104ABC00A36023685A1C22601E706369834204D071
:104ACC00A389DB0706D50A2E04D12146284600F01F
:104ADC0019F988B93846F8BD0A4B9C4201D1AC682B
:104AEC00CFE7094B9C4208BFEC68CAE72146284631
:104AFC0000F00CF80028CBD04FF0FF37EAE700BFEE
:104B0C00B4530008D453000894530008324B70B5CA
:104B1C001D6806460C4625B1AB6913B9284600F052
:104B2C0085F92E4B9C420FD16C68A389B4F90C20EB
:104B3C0019072CD4DD0611D40923336042F040034D
:104B4C004FF0FF30A3813EE0254B9C4201D1AC6875
:104B5C00EBE7244B9C4208BFEC68E6E7580712D5FC
:104B6C00616B41B104F14403994202D03046FFF726
:104B7C00D7FB00236363A38923F02403A3810023C1
:104B8C00636023692360A38943F00803A38123692D
:104B9C004BB9A38903F42073B3F5007F03D02146EE
:104BAC00304600F007FAA089B4F90C2010F001038C
:104BBC000AD00023A36063695B42A361236943B9F4
:104BCC0010F08000BAD170BD810758BF6369A36033
:104BDC00F4E70020F7E700BF30000020B4530008D2
:104BEC00D453000894530008062008B500F064FA6A
:104BFC000120FFF751FA00008A892DE9F0410546A2
:104C0C0010070C4658D44B68002B05DC0B6C002BA2
:104C1C0002DC0020BDE8F081E66A002EF9D000230A
:104C2C0012F480522F682B6032D0606DA3895A0722
:104C3C0005D56368C01A636B0BB1236CC01A0023D3
:104C4C000246E66A2846216AB047431CA38906D16E
:104C5C0029681D292CD82A4ACA40D60728D50022F3
:104C6C0062602269D904226004D5421C01D12B68F0
:104C7C0003B96065616B2F600029CAD004F144034D
:104C8C00994202D02846FFF74BFB00206063C1E736
:104C9C00216A01232846B047411CC7D12B68002B41
:104CAC00C4D01D2B01D0162B01D12F60B1E7A389E5
:104CBC0043F04003A381ADE70F69002FA9D0930700
:104CCC0018BF00230E6808BF4B69A6EB07080F60DE
:104CDC008B60B8F1000F9CDD43463A462846216AAA
:104CEC00A66AB047002806DCA3894FF0FF3043F0DA
:104CFC004003A3818EE70744A8EB0008E9E700BF57
:104D0C000100402038B50B6905460C4613B9002547
:104D1C00284638BD18B183690BB900F087F8144BDD
:104D2C009C421BD16C68B4F90C30002BEFD0626E36
:104D3C00D00704D4990502D4A06D00F015F92846CB
:104D4C002146FFF759FF636E0546DA07E0D4A389C5
:104D5C009B05DDD4A06D00F008F9D9E7054B9C420A
:104D6C0001D1AC68DFE7044B9C4208BFEC68DAE782
:104D7C00B4530008D453000894530008002310B512
:104D8C000446C0E90033C0E9043383608181436683
:104D9C00C2818361194608225C30FFF741FA054B4A
:104DAC0024626362044BA362044BE362044B2363EF
:104DBC0010BD00BFFD5000081F51000857510008DE
:104DCC007B510008014900F0AFB800BF114D00083D
:104DDC0070B568254A1E55430E4605F17401FFF760
:104DEC00EBFA044640B10021C0E900160C30A0607B
:104DFC0005F16802FFF714FA204670BD014800F077
:104E0C00B3B800BF84260020014800F0AEB800BF44
:104E1C0084260020014800F0A7B800BF7F260020A0
:104E2C00014800F0A2B800BF7F26002010B5044650
:104E3C00FFF7F0FFA3691BB1BDE81040FFF7F0BF0F
:104E4C00C4E912332365134B134A1B68A262A342B5
:104E5C0008BF0123204608BFA36100F01FF8606063
:104E6C00204600F01BF8A060204600F017F8002246
:104E7C000421E0606068FFF781FF01220921A0682E
:104E8C00FFF77CFF02221221E068FFF777FF012376
:104E9C00A361D1E7A8520008D14D0008F8B5074628
:104EAC00FFF7ACFF1E4B1E68B36913B93046FFF712
:104EBC00BDFF4836D6E90134013B03D533680BB34B
:104ECC003668F7E7B4F90C50D5B9164B04F1580015
:104EDC00E360656600F047F8FFF796FF0822294665
:104EEC00C4E90155C4E904552560A56104F15C00D1
:104EFC00FFF796F9C4E90D55C4E912552046F8BDE3
:104F0C006834D9E704213846FFF762FF0446306065
:104F1C000028D5D1FFF778FF0C233B60EEE700BFEC
:104F2C00A85200080100FFFF2DE9F8430646884609
:104F3C00002700F14804D4E90195B9F1010905D520
:104F4C002468002CF7D13846BDE8F883AB89012BD7
:104F5C0007D9B5F90E30013303D029463046C04786
:104F6C0007436835E9E770477047704770B50E46E0
:104F7C00B1F90E10144600291D4696B007DA00232D
:104F8C002B60B3891A0610D44FF480630EE06A4686
:104F9C0000F014F90028F2DB019A02F47042A2F539
:104FAC0000535A425A412A60EEE740230020236006
:104FBC0016B070BD8B8973B59D0706460C4607D598
:104FCC0004F14703236023610123636102B070BDC8
:104FDC006A4601ABFFF7CAFF009905463046FFF75A
:104FEC00EBF948B9B4F90C309A05EFD423F003036C
:104FFC0043F00203A381E3E70D4BB362A389206066
:10500C0043F08003A381009B20616361019B5BB132
:10501C003046B4F90E1000F0E3F828B1A38923F060
:10502C00030343F00103A381A0890543A581CDE7C8
:10503C00D14D0008034610B5C9B20244934218463C
:10504C0001D1002003E0047801338C42F6D110BD6D
:10505C000148FFF789BF00BF802600200148FFF7F9
:10506C0084BF00BF802600201F2938B504460D469A
:10507C0004D9162303604FF0FF3038BD426C12B1D7
:10508C0052F821304BB9204600F030F82A46014640
:10509C002046BDE8384000F017B8012B0AD0591C47
:1050AC0003D1162303600120E7E70024284642F8C9
:1050BC00254098470020E0E7024B01461868FFF7AF
:1050CC00D3BF00BF3000002038B50023064D044686
:1050DC00084611462B60FEF7D7FF431C02D12B6804
:1050EC0003B1236038BD00BF88260020FEF7CABF7D
:1050FC0010B50C46B1F90E1000F094F80028ABBFB7
:10510C00636DA3891B1823F48053ACBF6365A38123
:10511C0010BD2DE9F0411F468B890546DB050C4679
:10512C00164605D502230022B1F90E1000F068F8DE
:10513C00A389324623F48053A38128463B46B4F915
:10514C000E10BDE8F04100F017B810B50C46B1F9DF
:10515C000E1000F055F8431CA38915BF606523F4AD
:10516C00805343F48053A38118BFA38110BDB1F9C0
:10517C000E1000F013B8000038B50446084611466E
:10518C000022054D2A601A46FEF79CFF431C02D1F3
:10519C002B6803B1236038BD8826002038B5002366
:1051AC00054D044608462B60FEF7B8FF431C02D1A0
:1051BC002B6803B1236038BD8826002038B5002346
:1051CC00064D0446084611462B60FEF7AAFF431C09
:1051DC0002D12B6803B1236038BD00BF88260020A4
:1051EC0038B50023054D044608462B60FEF79EFF9C
:1051FC00431C02D12B6803B1236038BD88260020E4
:10520C0038B50446084611460022054D2A601A4658
:10521C00FEF78EFF431C02D12B6803B1236038BD0F
:10522C008826002038B50446084611460022054D54
:10523C002A601A46FEF736FF431C02D12B6803B1D5
:10524C00236038BD88260020F8B500BFF8BC08BC28
:10525C009E467047F8B500BFF8BC08BC9E46704728
:10526C00060C0602060406086428642064286414EC
:10527C0000000000000000000102030406070809FA
:10528C0000000000010203040203040506070809DC
:10529C000A0B0C0D0E0F1010000000003400002043
:1052AC005245454E54206D616C6C6F632073756371
:1052BC00636565646564002F6275696C642F676E45
:1052CC00752D746F6F6C732D666F722D73746D33D7
:1052DC00325F392D323032302D71322D7570646160
:1052EC0074652E32303230313030312D313632312E
:1052FC002F7372632F6E65776C69622F6E65776C96
:10530C0069622F6C6962632F7374646C69622F72AB
:10531C00616E642E63002C2066756E6374696F6E0B
:10532C003A2000617373657274696F6E2022257365
:10533C0022206661696C65643A2066696C6520227E
:10534C002573222C206C696E6520256425732573CA
:10535C000A00232D302B2000686C4C0065666745D5
:10536C0046470030313233343536373839414243D1
:10537C004445460030313233343536373839616282
:10538C00636465660000000000000000000000007F
:10539C000000000000000000000000000000000001
:1053AC0000000000000000000000000000000000F1
:1053BC0000000000000000000000000000000000E1
:1053CC0000000000000000000000000000000000D1
:1053DC0000000000000000000000000000000000C1
:0853EC000000000000000000B9
:0453F400310100087B
:0453F8000D0100089B
:1053FC00010000001000000008060C060602060A58
:10540C000400000000000000051E0A1E1E081E0FEE
:10541C000A00000000000000017F01000024F400DD
:10542C003400002000000000B4530008D4530008DE
:10543C009453000800000000000000000000000071
:10544C000000000000000000000000000000000050
:10545C000000000000000000000000000000000040
:10546C000000000000000000000000000000000030
:10547C000000000000000000000000000000000020
:04548C00000000001C
:040000050800418D21
:00000001FF
